{
  "_format": "hh-sol-artifact-1",
  "contractName": "GHToken",
  "sourceName": "contracts/GHToken.sol",
  "abi": [
    {
      "inputs": [],
      "stateMutability": "nonpayable",
      "type": "constructor"
    },
    {
      "inputs": [],
      "name": "AccessControlBadConfirmation",
      "type": "error"
    },
    {
      "inputs": [
        {
          "internalType": "address",
          "name": "account",
          "type": "address"
        },
        {
          "internalType": "bytes32",
          "name": "neededRole",
          "type": "bytes32"
        }
      ],
      "name": "AccessControlUnauthorizedAccount",
      "type": "error"
    },
    {
      "inputs": [
        {
          "internalType": "address",
          "name": "spender",
          "type": "address"
        },
        {
          "internalType": "uint256",
          "name": "allowance",
          "type": "uint256"
        },
        {
          "internalType": "uint256",
          "name": "needed",
          "type": "uint256"
        }
      ],
      "name": "ERC20InsufficientAllowance",
      "type": "error"
    },
    {
      "inputs": [
        {
          "internalType": "address",
          "name": "sender",
          "type": "address"
        },
        {
          "internalType": "uint256",
          "name": "balance",
          "type": "uint256"
        },
        {
          "internalType": "uint256",
          "name": "needed",
          "type": "uint256"
        }
      ],
      "name": "ERC20InsufficientBalance",
      "type": "error"
    },
    {
      "inputs": [
        {
          "internalType": "address",
          "name": "approver",
          "type": "address"
        }
      ],
      "name": "ERC20InvalidApprover",
      "type": "error"
    },
    {
      "inputs": [
        {
          "internalType": "address",
          "name": "receiver",
          "type": "address"
        }
      ],
      "name": "ERC20InvalidReceiver",
      "type": "error"
    },
    {
      "inputs": [
        {
          "internalType": "address",
          "name": "sender",
          "type": "address"
        }
      ],
      "name": "ERC20InvalidSender",
      "type": "error"
    },
    {
      "inputs": [
        {
          "internalType": "address",
          "name": "spender",
          "type": "address"
        }
      ],
      "name": "ERC20InvalidSpender",
      "type": "error"
    },
    {
      "anonymous": false,
      "inputs": [
        {
          "indexed": true,
          "internalType": "address",
          "name": "owner",
          "type": "address"
        },
        {
          "indexed": true,
          "internalType": "address",
          "name": "spender",
          "type": "address"
        },
        {
          "indexed": false,
          "internalType": "uint256",
          "name": "value",
          "type": "uint256"
        }
      ],
      "name": "Approval",
      "type": "event"
    },
    {
      "anonymous": false,
      "inputs": [
        {
          "indexed": true,
          "internalType": "bytes32",
          "name": "role",
          "type": "bytes32"
        },
        {
          "indexed": true,
          "internalType": "bytes32",
          "name": "previousAdminRole",
          "type": "bytes32"
        },
        {
          "indexed": true,
          "internalType": "bytes32",
          "name": "newAdminRole",
          "type": "bytes32"
        }
      ],
      "name": "RoleAdminChanged",
      "type": "event"
    },
    {
      "anonymous": false,
      "inputs": [
        {
          "indexed": true,
          "internalType": "bytes32",
          "name": "role",
          "type": "bytes32"
        },
        {
          "indexed": true,
          "internalType": "address",
          "name": "account",
          "type": "address"
        },
        {
          "indexed": true,
          "internalType": "address",
          "name": "sender",
          "type": "address"
        }
      ],
      "name": "RoleGranted",
      "type": "event"
    },
    {
      "anonymous": false,
      "inputs": [
        {
          "indexed": true,
          "internalType": "bytes32",
          "name": "role",
          "type": "bytes32"
        },
        {
          "indexed": true,
          "internalType": "address",
          "name": "account",
          "type": "address"
        },
        {
          "indexed": true,
          "internalType": "address",
          "name": "sender",
          "type": "address"
        }
      ],
      "name": "RoleRevoked",
      "type": "event"
    },
    {
      "anonymous": false,
      "inputs": [
        {
          "indexed": true,
          "internalType": "address",
          "name": "to",
          "type": "address"
        },
        {
          "indexed": false,
          "internalType": "uint256",
          "name": "amount",
          "type": "uint256"
        },
        {
          "indexed": false,
          "internalType": "string",
          "name": "context",
          "type": "string"
        }
      ],
      "name": "TokenMinted",
      "type": "event"
    },
    {
      "anonymous": false,
      "inputs": [
        {
          "indexed": true,
          "internalType": "address",
          "name": "from",
          "type": "address"
        },
        {
          "indexed": true,
          "internalType": "address",
          "name": "to",
          "type": "address"
        },
        {
          "indexed": false,
          "internalType": "uint256",
          "name": "value",
          "type": "uint256"
        }
      ],
      "name": "Transfer",
      "type": "event"
    },
    {
      "inputs": [],
      "name": "DEFAULT_ADMIN_ROLE",
      "outputs": [
        {
          "internalType": "bytes32",
          "name": "",
          "type": "bytes32"
        }
      ],
      "stateMutability": "view",
      "type": "function"
    },
    {
      "inputs": [
        {
          "internalType": "address",
          "name": "owner",
          "type": "address"
        },
        {
          "internalType": "address",
          "name": "spender",
          "type": "address"
        }
      ],
      "name": "allowance",
      "outputs": [
        {
          "internalType": "uint256",
          "name": "",
          "type": "uint256"
        }
      ],
      "stateMutability": "view",
      "type": "function"
    },
    {
      "inputs": [
        {
          "internalType": "address",
          "name": "spender",
          "type": "address"
        },
        {
          "internalType": "uint256",
          "name": "value",
          "type": "uint256"
        }
      ],
      "name": "approve",
      "outputs": [
        {
          "internalType": "bool",
          "name": "",
          "type": "bool"
        }
      ],
      "stateMutability": "nonpayable",
      "type": "function"
    },
    {
      "inputs": [
        {
          "internalType": "address",
          "name": "account",
          "type": "address"
        }
      ],
      "name": "balanceOf",
      "outputs": [
        {
          "internalType": "uint256",
          "name": "",
          "type": "uint256"
        }
      ],
      "stateMutability": "view",
      "type": "function"
    },
    {
      "inputs": [
        {
          "internalType": "uint256",
          "name": "amount",
          "type": "uint256"
        }
      ],
      "name": "burn",
      "outputs": [],
      "stateMutability": "nonpayable",
      "type": "function"
    },
    {
      "inputs": [],
      "name": "decimals",
      "outputs": [
        {
          "internalType": "uint8",
          "name": "",
          "type": "uint8"
        }
      ],
      "stateMutability": "view",
      "type": "function"
    },
    {
      "inputs": [
        {
          "internalType": "bytes32",
          "name": "role",
          "type": "bytes32"
        }
      ],
      "name": "getRoleAdmin",
      "outputs": [
        {
          "internalType": "bytes32",
          "name": "",
          "type": "bytes32"
        }
      ],
      "stateMutability": "view",
      "type": "function"
    },
    {
      "inputs": [
        {
          "internalType": "bytes32",
          "name": "role",
          "type": "bytes32"
        },
        {
          "internalType": "address",
          "name": "account",
          "type": "address"
        }
      ],
      "name": "grantRole",
      "outputs": [],
      "stateMutability": "nonpayable",
      "type": "function"
    },
    {
      "inputs": [
        {
          "internalType": "bytes32",
          "name": "role",
          "type": "bytes32"
        },
        {
          "internalType": "address",
          "name": "account",
          "type": "address"
        }
      ],
      "name": "hasRole",
      "outputs": [
        {
          "internalType": "bool",
          "name": "",
          "type": "bool"
        }
      ],
      "stateMutability": "view",
      "type": "function"
    },
    {
      "inputs": [
        {
          "internalType": "address",
          "name": "to",
          "type": "address"
        },
        {
          "internalType": "uint256",
          "name": "amount",
          "type": "uint256"
        }
      ],
      "name": "mint",
      "outputs": [],
      "stateMutability": "nonpayable",
      "type": "function"
    },
    {
      "inputs": [],
      "name": "name",
      "outputs": [
        {
          "internalType": "string",
          "name": "",
          "type": "string"
        }
      ],
      "stateMutability": "view",
      "type": "function"
    },
    {
      "inputs": [
        {
          "internalType": "bytes32",
          "name": "role",
          "type": "bytes32"
        },
        {
          "internalType": "address",
          "name": "callerConfirmation",
          "type": "address"
        }
      ],
      "name": "renounceRole",
      "outputs": [],
      "stateMutability": "nonpayable",
      "type": "function"
    },
    {
      "inputs": [
        {
          "internalType": "bytes32",
          "name": "role",
          "type": "bytes32"
        },
        {
          "internalType": "address",
          "name": "account",
          "type": "address"
        }
      ],
      "name": "revokeRole",
      "outputs": [],
      "stateMutability": "nonpayable",
      "type": "function"
    },
    {
      "inputs": [
        {
          "internalType": "bytes4",
          "name": "interfaceId",
          "type": "bytes4"
        }
      ],
      "name": "supportsInterface",
      "outputs": [
        {
          "internalType": "bool",
          "name": "",
          "type": "bool"
        }
      ],
      "stateMutability": "view",
      "type": "function"
    },
    {
      "inputs": [],
      "name": "symbol",
      "outputs": [
        {
          "internalType": "string",
          "name": "",
          "type": "string"
        }
      ],
      "stateMutability": "view",
      "type": "function"
    },
    {
      "inputs": [],
      "name": "totalSupply",
      "outputs": [
        {
          "internalType": "uint256",
          "name": "",
          "type": "uint256"
        }
      ],
      "stateMutability": "view",
      "type": "function"
    },
    {
      "inputs": [
        {
          "internalType": "address",
          "name": "to",
          "type": "address"
        },
        {
          "internalType": "uint256",
          "name": "value",
          "type": "uint256"
        }
      ],
      "name": "transfer",
      "outputs": [
        {
          "internalType": "bool",
          "name": "",
          "type": "bool"
        }
      ],
      "stateMutability": "nonpayable",
      "type": "function"
    },
    {
      "inputs": [
        {
          "internalType": "address",
          "name": "from",
          "type": "address"
        },
        {
          "internalType": "address",
          "name": "to",
          "type": "address"
        },
        {
          "internalType": "uint256",
          "name": "value",
          "type": "uint256"
        }
      ],
      "name": "transferFrom",
      "outputs": [
        {
          "internalType": "bool",
          "name": "",
          "type": "bool"
        }
      ],
      "stateMutability": "nonpayable",
      "type": "function"
    }
  ],
  "bytecode": "0x6080604052346103ee57604080519081016001600160401b038111828210176102f9576040908152600782526623a42a37b5b2b760c91b602083015280519081016001600160401b038111828210176102f957604052600381526211d21560ea1b602082015281516001600160401b0381116102f957600354600181811c911680156103e4575b60208210146102d957601f811161037f575b50602092601f821160011461031a579281929360009261030f575b50508160011b916000199060031b1c1916176003555b80516001600160401b0381116102f957600454600181811c911680156102ef575b60208210146102d957601f8111610274575b50602091601f821160011461021057918192600092610205575b50508160011b916000199060031b1c1916176004555b7f9f2df0fed2c77648de5860a4cc508cd0818c85b8b8a1ab4ceeef8d981c8956a660065560075433600890811b610100600160a81b03169190610100600160a81b031982168317901c6001600160a01b0316156101d6576001600160a81b0319161760011760078190556101ab9060081c6001600160a01b03166103f3565b506101c660065460018060a01b0360075460081c169061046f565b50604051610b8790816104ed8239f35b60405162461bcd60e51b8152602060048201526007602482015266061646d696e3d360cc1b6044820152606490fd5b015190503880610116565b601f198216926004600052806000209160005b85811061025c57508360019510610243575b505050811b0160045561012c565b015160001960f88460031b161c19169055388080610235565b91926020600181928685015181550194019201610223565b60046000527f8a35acfbc15ff81a39ae7d344fd709f28e8600b4aa8c65c6b64bfe7fe36bd19b601f830160051c810191602084106102cf575b601f0160051c01905b8181106102c357506100fc565b600081556001016102b6565b90915081906102ad565b634e487b7160e01b600052602260045260246000fd5b90607f16906100ea565b634e487b7160e01b600052604160045260246000fd5b0151905038806100b3565b601f198216936003600052806000209160005b868110610367575083600195961061034e575b505050811b016003556100c9565b015160001960f88460031b161c19169055388080610340565b9192602060018192868501518155019401920161032d565b60036000527fc2575a0e9e593c00f959f8c92f12db2869c3395a3b0502d05e2516446f71f85b601f830160051c810191602084106103da575b601f0160051c01905b8181106103ce5750610098565b600081556001016103c1565b90915081906103b8565b90607f1690610086565b600080fd5b6001600160a01b0381166000908152600080516020611094833981519152602052604090205460ff16610469576001600160a01b0316600081815260008051602061109483398151915260205260408120805460ff191660011790553391906000805160206110748339815191528180a4600190565b50600090565b60008181526005602090815260408083206001600160a01b038616845290915290205460ff166104e55760008181526005602090815260408083206001600160a01b0395909516808452949091528120805460ff19166001179055339291906000805160206110748339815191529080a4600190565b505060009056fe608080604052600436101561001357600080fd5b60003560e01c90816301ffc9a7146108805750806306fdde03146107aa578063095ea7b31461072457806318160ddd1461070657806323b872dd14610610578063248a9ca3146105db5780632f2ff15d1461059b578063313ce5671461057f57806336568abe1461053957806340c10f191461042557806342966c681461037f57806370a082311461034557806391d14854146102f757806395d89b41146101d6578063a217fddf146101ba578063a9059cbb14610189578063d547741f146101425763dd62ed3e146100e557600080fd5b3461013d57604036600319011261013d576100fe61091c565b6001600160a01b0361010e610932565b911660005260016020526001600160a01b03604060002091166000526020526020604060002054604051908152f35b600080fd5b3461013d57604036600319011261013d57610187600435610161610932565b9061018261017d82600052600560205260016040600020015490565b6109e1565b610ac2565b005b3461013d57604036600319011261013d576101af6101a561091c565b6024359033610948565b602060405160018152f35b3461013d57600036600319011261013d57602060405160008152f35b3461013d57600036600319011261013d5760405160006004548060011c906001811680156102ed575b6020831081146102d9578285529081156102bd5750600114610266575b50819003601f01601f191681019067ffffffffffffffff8211818310176102505761024c829182604052826108d3565b0390f35b634e487b7160e01b600052604160045260246000fd5b905060046000527f8a35acfbc15ff81a39ae7d344fd709f28e8600b4aa8c65c6b64bfe7fe36bd19b6000905b8282106102a75750602091508201018261021c565b6001816020925483858801015201910190610292565b90506020925060ff191682840152151560051b8201018261021c565b634e487b7160e01b84526022600452602484fd5b91607f16916101ff565b3461013d57604036600319011261013d57610310610932565b60043560005260056020526001600160a01b0360406000209116600052602052602060ff604060002054166040519015158152f35b3461013d57602036600319011261013d576001600160a01b0361036661091c565b1660005260006020526020604060002054604051908152f35b3461013d57602036600319011261013d57600435331561040f576000338152806020526040812054918083106103f6578082933384528360205203604083205580600254036002556040519081527fddf252ad1be2c89b69c2b068fc378daa952ba7f163c4a11628f55a4df523b3ef60203392a380f35b60649263391434e360e21b835233600452602452604452fd5b634b637e8f60e11b600052600060045260246000fd5b3461013d57604036600319011261013d5761043e61091c565b6001600160a01b03602435916104556006546109e1565b1680156105235760025482810180911161050d576002557fdf92894dc4675a7333caa5903b69cf5d8e8ec0d3f361c88207b6688e525703bb6080600093838552846020526040852081815401905583857fddf252ad1be2c89b69c2b068fc378daa952ba7f163c4a11628f55a4df523b3ef6020604051858152a360405190815260406020820152600e60408201527f746f6b656e206772616e746564730000000000000000000000000000000000006060820152a280f35b634e487b7160e01b600052601160045260246000fd5b63ec442f0560e01b600052600060045260246000fd5b3461013d57604036600319011261013d57610552610932565b336001600160a01b0382160361056e5761018790600435610ac2565b63334bd91960e11b60005260046000fd5b3461013d57600036600319011261013d57602060405160128152f35b3461013d57604036600319011261013d576101876004356105ba610932565b906105d661017d82600052600560205260016040600020015490565b610a28565b3461013d57602036600319011261013d576020610608600435600052600560205260016040600020015490565b604051908152f35b3461013d57606036600319011261013d5761062961091c565b610631610932565b604435906001600160a01b0383169283600052600160205260406000206001600160a01b0333166000526020526040600020546000198110610679575b506101af9350610948565b8381106106e95784156106d35733156106bd576101af94600052600160205260406000206001600160a01b033316600052602052836040600020910390558461066e565b634a1406b160e11b600052600060045260246000fd5b63e602df0560e01b600052600060045260246000fd5b8390637dc7a0d960e11b6000523360045260245260445260646000fd5b3461013d57600036600319011261013d576020600254604051908152f35b3461013d57604036600319011261013d5761073d61091c565b6024359033156106d3576001600160a01b03169081156106bd57336000526001602052604060002082600052602052806040600020556040519081527f8c5be1e5ebec7d5bd14f71427d1e84f3dd0314c0f7b2291e5b200ac8c7c3b92560203392a3602060405160018152f35b3461013d57600036600319011261013d5760405160006003548060011c90600181168015610876575b6020831081146102d9578285529081156102bd575060011461081f5750819003601f01601f191681019067ffffffffffffffff8211818310176102505761024c829182604052826108d3565b905060036000527fc2575a0e9e593c00f959f8c92f12db2869c3395a3b0502d05e2516446f71f85b6000905b8282106108605750602091508201018261021c565b600181602092548385880101520191019061084b565b91607f16916107d3565b3461013d57602036600319011261013d576004359063ffffffff60e01b821680920361013d57602091637965db0b60e01b81149081156108c2575b5015158152f35b6301ffc9a760e01b149050836108bb565b91909160208152825180602083015260005b818110610906575060409293506000838284010152601f8019910116010190565b80602080928701015160408286010152016108e5565b600435906001600160a01b038216820361013d57565b602435906001600160a01b038216820361013d57565b6001600160a01b031690811561040f576001600160a01b03169182156105235760008281528060205260408120548281106109c75791604082827fddf252ad1be2c89b69c2b068fc378daa952ba7f163c4a11628f55a4df523b3ef958760209652828652038282205586815280845220818154019055604051908152a3565b916064928463391434e360e21b8452600452602452604452fd5b80600052600560205260406000206001600160a01b03331660005260205260ff6040600020541615610a105750565b63e2517d3f60e01b6000523360045260245260446000fd5b80600052600560205260406000206001600160a01b03831660005260205260ff6040600020541615600014610abb5780600052600560205260406000206001600160a01b0383166000526020526040600020600160ff198254161790556001600160a01b03339216907f2f8788117e7eff1d82e926ec794901d17c78024a50270940304540a733656f0d600080a4600190565b5050600090565b80600052600560205260406000206001600160a01b03831660005260205260ff60406000205416600014610abb5780600052600560205260406000206001600160a01b038316600052602052604060002060ff1981541690556001600160a01b03339216907ff6391f5c32d9c69d2a47ea670b442974b53935d1edc7fd64eb21e047a839171b600080a460019056fea2646970667358221220327418cce091e228aeba93e9c5080b2d9340a0b4f975d45ce7dff480cd4590e264736f6c634300081c00332f8788117e7eff1d82e926ec794901d17c78024a50270940304540a733656f0d05b8ccbb9d4d8fb16ea74ce3c29a41f1b461fbdaff4714a0d9a8eb05499746bc",
  "linkReferences": {},
  "deployedLinkReferences": {}
}