{
  "_format": "hh-sol-artifact-1",
  "contractName": "CarbonFactory",
  "sourceName": "contracts/CarbonFactory.sol",
  "abi": [
    {
      "inputs": [
        {
          "internalType": "address",
          "name": "admin_",
          "type": "address"
        },
        {
          "internalType": "address",
          "name": "_projectImpl",
          "type": "address"
        },
        {
          "internalType": "address",
          "name": "_retireImpl",
          "type": "address"
        },
        {
          "internalType": "address",
          "name": "_tokenImpl",
          "type": "address"
        }
      ],
      "stateMutability": "nonpayable",
      "type": "constructor"
    },
    {
      "inputs": [],
      "name": "AccessControlBadConfirmation",
      "type": "error"
    },
    {
      "inputs": [
        {
          "internalType": "address",
          "name": "account",
          "type": "address"
        },
        {
          "internalType": "bytes32",
          "name": "neededRole",
          "type": "bytes32"
        }
      ],
      "name": "AccessControlUnauthorizedAccount",
      "type": "error"
    },
    {
      "inputs": [],
      "name": "FailedDeployment",
      "type": "error"
    },
    {
      "inputs": [
        {
          "internalType": "uint256",
          "name": "balance",
          "type": "uint256"
        },
        {
          "internalType": "uint256",
          "name": "needed",
          "type": "uint256"
        }
      ],
      "name": "InsufficientBalance",
      "type": "error"
    },
    {
      "anonymous": false,
      "inputs": [
        {
          "indexed": true,
          "internalType": "address",
          "name": "owner",
          "type": "address"
        },
        {
          "indexed": true,
          "internalType": "address",
          "name": "clone",
          "type": "address"
        },
        {
          "indexed": false,
          "internalType": "uint256",
          "name": "projectId",
          "type": "uint256"
        },
        {
          "indexed": false,
          "internalType": "address",
          "name": "minter",
          "type": "address"
        }
      ],
      "name": "ProjectDeployed",
      "type": "event"
    },
    {
      "anonymous": false,
      "inputs": [
        {
          "indexed": true,
          "internalType": "bytes32",
          "name": "role",
          "type": "bytes32"
        },
        {
          "indexed": true,
          "internalType": "bytes32",
          "name": "previousAdminRole",
          "type": "bytes32"
        },
        {
          "indexed": true,
          "internalType": "bytes32",
          "name": "newAdminRole",
          "type": "bytes32"
        }
      ],
      "name": "RoleAdminChanged",
      "type": "event"
    },
    {
      "anonymous": false,
      "inputs": [
        {
          "indexed": true,
          "internalType": "bytes32",
          "name": "role",
          "type": "bytes32"
        },
        {
          "indexed": true,
          "internalType": "address",
          "name": "account",
          "type": "address"
        },
        {
          "indexed": true,
          "internalType": "address",
          "name": "sender",
          "type": "address"
        }
      ],
      "name": "RoleGranted",
      "type": "event"
    },
    {
      "anonymous": false,
      "inputs": [
        {
          "indexed": true,
          "internalType": "bytes32",
          "name": "role",
          "type": "bytes32"
        },
        {
          "indexed": true,
          "internalType": "address",
          "name": "account",
          "type": "address"
        },
        {
          "indexed": true,
          "internalType": "address",
          "name": "sender",
          "type": "address"
        }
      ],
      "name": "RoleRevoked",
      "type": "event"
    },
    {
      "inputs": [],
      "name": "DEFAULT_ADMIN_ROLE",
      "outputs": [
        {
          "internalType": "bytes32",
          "name": "",
          "type": "bytes32"
        }
      ],
      "stateMutability": "view",
      "type": "function"
    },
    {
      "inputs": [
        {
          "internalType": "address",
          "name": "",
          "type": "address"
        },
        {
          "internalType": "uint256",
          "name": "",
          "type": "uint256"
        }
      ],
      "name": "byOwner",
      "outputs": [
        {
          "internalType": "uint256",
          "name": "",
          "type": "uint256"
        }
      ],
      "stateMutability": "view",
      "type": "function"
    },
    {
      "inputs": [
        {
          "internalType": "string",
          "name": "name_",
          "type": "string"
        },
        {
          "internalType": "string",
          "name": "symbol_",
          "type": "string"
        },
        {
          "internalType": "uint256",
          "name": "projectId",
          "type": "uint256"
        },
        {
          "internalType": "address",
          "name": "owner_",
          "type": "address"
        },
        {
          "internalType": "address",
          "name": "paymentToken",
          "type": "address"
        },
        {
          "internalType": "address",
          "name": "retireContract",
          "type": "address"
        },
        {
          "internalType": "address",
          "name": "treasury",
          "type": "address"
        },
        {
          "internalType": "uint256",
          "name": "price",
          "type": "uint256"
        },
        {
          "internalType": "uint256",
          "name": "maxSupply",
          "type": "uint256"
        },
        {
          "internalType": "bool",
          "name": "enforceNoResale",
          "type": "bool"
        },
        {
          "internalType": "string",
          "name": "metadataURI",
          "type": "string"
        }
      ],
      "name": "createProjectClone",
      "outputs": [
        {
          "internalType": "address",
          "name": "clone",
          "type": "address"
        }
      ],
      "stateMutability": "nonpayable",
      "type": "function"
    },
    {
      "inputs": [
        {
          "internalType": "address",
          "name": "owner_",
          "type": "address"
        }
      ],
      "name": "getOwnerProjects",
      "outputs": [
        {
          "components": [
            {
              "internalType": "address",
              "name": "projectClone",
              "type": "address"
            },
            {
              "internalType": "uint256",
              "name": "projectId",
              "type": "uint256"
            },
            {
              "internalType": "address",
              "name": "owner",
              "type": "address"
            },
            {
              "internalType": "address",
              "name": "treasury",
              "type": "address"
            },
            {
              "internalType": "uint256",
              "name": "price",
              "type": "uint256"
            },
            {
              "internalType": "uint256",
              "name": "maxSupply",
              "type": "uint256"
            },
            {
              "internalType": "string",
              "name": "metadataURI",
              "type": "string"
            }
          ],
          "internalType": "struct CarbonFactory.ProjectRecord[]",
          "name": "list",
          "type": "tuple[]"
        }
      ],
      "stateMutability": "view",
      "type": "function"
    },
    {
      "inputs": [
        {
          "internalType": "bytes32",
          "name": "role",
          "type": "bytes32"
        }
      ],
      "name": "getRoleAdmin",
      "outputs": [
        {
          "internalType": "bytes32",
          "name": "",
          "type": "bytes32"
        }
      ],
      "stateMutability": "view",
      "type": "function"
    },
    {
      "inputs": [
        {
          "internalType": "bytes32",
          "name": "role",
          "type": "bytes32"
        },
        {
          "internalType": "address",
          "name": "account",
          "type": "address"
        }
      ],
      "name": "grantRole",
      "outputs": [],
      "stateMutability": "nonpayable",
      "type": "function"
    },
    {
      "inputs": [
        {
          "internalType": "bytes32",
          "name": "role",
          "type": "bytes32"
        },
        {
          "internalType": "address",
          "name": "account",
          "type": "address"
        }
      ],
      "name": "hasRole",
      "outputs": [
        {
          "internalType": "bool",
          "name": "",
          "type": "bool"
        }
      ],
      "stateMutability": "view",
      "type": "function"
    },
    {
      "inputs": [],
      "name": "projectImplementation",
      "outputs": [
        {
          "internalType": "address",
          "name": "",
          "type": "address"
        }
      ],
      "stateMutability": "view",
      "type": "function"
    },
    {
      "inputs": [
        {
          "internalType": "uint256",
          "name": "",
          "type": "uint256"
        }
      ],
      "name": "projects",
      "outputs": [
        {
          "internalType": "address",
          "name": "projectClone",
          "type": "address"
        },
        {
          "internalType": "uint256",
          "name": "projectId",
          "type": "uint256"
        },
        {
          "internalType": "address",
          "name": "owner",
          "type": "address"
        },
        {
          "internalType": "address",
          "name": "treasury",
          "type": "address"
        },
        {
          "internalType": "uint256",
          "name": "price",
          "type": "uint256"
        },
        {
          "internalType": "uint256",
          "name": "maxSupply",
          "type": "uint256"
        },
        {
          "internalType": "string",
          "name": "metadataURI",
          "type": "string"
        }
      ],
      "stateMutability": "view",
      "type": "function"
    },
    {
      "inputs": [
        {
          "internalType": "bytes32",
          "name": "role",
          "type": "bytes32"
        },
        {
          "internalType": "address",
          "name": "callerConfirmation",
          "type": "address"
        }
      ],
      "name": "renounceRole",
      "outputs": [],
      "stateMutability": "nonpayable",
      "type": "function"
    },
    {
      "inputs": [],
      "name": "retireImplementation",
      "outputs": [
        {
          "internalType": "address",
          "name": "",
          "type": "address"
        }
      ],
      "stateMutability": "view",
      "type": "function"
    },
    {
      "inputs": [
        {
          "internalType": "bytes32",
          "name": "role",
          "type": "bytes32"
        },
        {
          "internalType": "address",
          "name": "account",
          "type": "address"
        }
      ],
      "name": "revokeRole",
      "outputs": [],
      "stateMutability": "nonpayable",
      "type": "function"
    },
    {
      "inputs": [
        {
          "internalType": "bytes4",
          "name": "interfaceId",
          "type": "bytes4"
        }
      ],
      "name": "supportsInterface",
      "outputs": [
        {
          "internalType": "bool",
          "name": "",
          "type": "bool"
        }
      ],
      "stateMutability": "view",
      "type": "function"
    },
    {
      "inputs": [],
      "name": "tokenImplementation",
      "outputs": [
        {
          "internalType": "address",
          "name": "",
          "type": "address"
        }
      ],
      "stateMutability": "view",
      "type": "function"
    },
    {
      "inputs": [],
      "name": "totalProjects",
      "outputs": [
        {
          "internalType": "uint256",
          "name": "",
          "type": "uint256"
        }
      ],
      "stateMutability": "view",
      "type": "function"
    }
  ],
  "bytecode": "0x6080346100f757601f6110df38819003918201601f19168301916001600160401b038311848410176100fc578084926080946040528339810103126100f75761004781610112565b9061005460208201610112565b61006c606061006560408501610112565b9301610112565b926001600160a01b0316156100c857600180546001600160a01b03199081166001600160a01b039384161790915560028054821693831693909317909255600380549092169216919091179055604051610fb890816101278239f35b60405162461bcd60e51b8152602060048201526007602482015266061646d696e3d360cc1b6044820152606490fd5b600080fd5b634e487b7160e01b600052604160045260246000fd5b51906001600160a01b03821682036100f75756fe608080604052600436101561001357600080fd5b600090813560e01c90816301ffc9a714610b4d57508063020e9a9314610b265780630bc8300d14610aff578063107046bd14610a5757806316ff6d52146104ea578063246f220b146102d2578063248a9ca31461029c5780632f2ff15d1461025b5780632f3a3d5d1461023457806336568abe146101ef57806391d14854146101a35780639c361e4e14610185578063a217fddf14610169578063c82fcef0146101125763d547741f146100c657600080fd5b3461010f57604036600319011261010f5761010b6004356100e5610d97565b9061010661010182600052600060205260016040600020015490565b610e12565b610ef3565b5080f35b80fd5b503461010f57604036600319011261010f5761012c610d81565b6001600160a01b031681526005602052604081208054602435929083101561010f57602061015a8484610dad565b90549060031b1c604051908152f35b503461010f578060031936011261010f57602090604051908152f35b503461010f578060031936011261010f576020600454604051908152f35b503461010f57604036600319011261010f576001600160a01b0360406101c7610d97565b92600435815280602052209116600052602052602060ff604060002054166040519015158152f35b503461010f57604036600319011261010f57610209610d97565b336001600160a01b038216036102255761010b90600435610ef3565b63334bd91960e11b8252600482fd5b503461010f578060031936011261010f5760206001600160a01b0360035416604051908152f35b503461010f57604036600319011261010f5761010b60043561027b610d97565b9061029761010182600052600060205260016040600020015490565b610e59565b503461010f57602036600319011261010f5760206102ca600435600052600060205260016040600020015490565b604051908152f35b503461010f57602036600319011261010f576001600160a01b036102f4610d81565b168152600560205260408120805461030b81610de6565b916103196040519384610c47565b818352601f1961032883610de6565b01845b8181106104a8575050835b8281106104025783856040519182916020830160208452825180915260408401602060408360051b870101940192905b82821061037557505050500390f35b919360019193955060206103f28192603f198a820301865260e060c08a516001600160a01b03815116845285810151868501526001600160a01b0360408201511660408501526001600160a01b0360608201511660608501526080810151608085015260a081015160a08501520151918160c08201520190610d0d565b9601920192018594939192610366565b8061041e61041260019385610dad565b90549060031b1c610ba6565b5061048760066040519261043184610c15565b6001600160a01b0381541684528581015460208501526001600160a01b0360028201541660408501526001600160a01b03600382015416606085015260048101546080850152600581015460a085015201610c69565b60c08201526104968287610dfe565b526104a18186610dfe565b5001610336565b6020906040516104b781610c15565b87815287838201528760408201528760608201528760808201528760a0820152606060c08201528282880101520161032b565b503461010f5761016036600319011261010f5760043567ffffffffffffffff8111610a535761051d903690600401610d4e565b60243567ffffffffffffffff8111610a4f5761053d903690600401610d4e565b939060443592606435956001600160a01b038716809703610a4f57608435916001600160a01b038316809303610a4b5760a435916001600160a01b038316809303610a475760c435926001600160a01b038416809403610a435760e4359461010435966101243593841515809503610a09576101443567ffffffffffffffff8111610a3f57918a99979593916001600160a01b0360376105e660099c9a98963690600401610d4e565b9c909d6e5af43d82803e903d91602b57fd5bf3600154763d602d80600a3d3981f3363d3d373d3d3d363d7300000062ffffff8260881c161783526effffffffffffffffffffffffffffff199060781b1617602052f0169d8e15610a30578e3b15610a2c57948f946004948f93968f986106d89661018099610684610696936040519e8f9d8e9d8e63acc1ef6f60e01b815201526101848d0191610dc5565b8a81036003190160248c015291610dc5565b9460448801526064870152608486015260a48501528760c48501528860e48501528961010485015261012484015260031983820301610144840152898b610dc5565b336101648301520381838d5af18015610a2157610a0d575b50604051936106fe85610c15565b8885526020850188815260408601918b8352606087019384526080870194855260a0870195865267ffffffffffffffff81116109f5576040519761074c601f8301601f19166020018a610c47565b8189523682820111610a0957818a92602092838c01378901015260c08601968752600454680100000000000000008110156109f5578060016107919201600455610ba6565b9690966109e15751865473ffffffffffffffffffffffffffffffffffffffff199081166001600160a01b0392831617885591516001880155915160028701805483169184169190911790559151600386018054909316911617905551600483015551600582015590518051600692909201919067ffffffffffffffff82116109cd57819061081f8454610bdb565b601f811161097d575b50602090601f831160011461091a57859261090f575b50508160011b916000199060031b1c19161790555b838152600560205260408120600454600019810192919083116108fb57805491680100000000000000008310156108e757508493602096936108be8460409460017f3ac52badd69472e4e99c3a3a1ab55f837f03ded604dcc80ab46210a554135c3597018155610dad565b819291549060031b91821b91600019901b191617905581519081523387820152a3604051908152f35b634e487b7160e01b81526041600452602490fd5b634e487b7160e01b82526011600452602482fd5b01519050388061083e565b8486528186209250601f198416865b818110610965575090846001959493921061094c575b505050811b019055610853565b015160001960f88460031b161c1916905538808061093f565b92936020600181928786015181550195019301610929565b90915083855260208520601f840160051c810191602085106109c3575b90601f859493920160051c01905b8181106109b55750610828565b8681558493506001016109a8565b909150819061099a565b634e487b7160e01b84526041600452602484fd5b634e487b7160e01b89526004899052602489fd5b634e487b7160e01b89526041600452602489fd5b8980fd5b86610a1a91979297610c47565b94386106f0565b6040513d89823e3d90fd5b8c80fd5b63b06ebf3d60e01b8d5260048dfd5b8a80fd5b8680fd5b8580fd5b8480fd5b8380fd5b5080fd5b503461010f57602036600319011261010f57600435600454811015610a5357610a7f90610ba6565b506001600160a01b03815416610afb6001830154926001600160a01b03600282015416906001600160a01b03600382015416600482015490610ac8600660058501549401610c69565b936040519788978852602088015260408701526060860152608085015260a084015260e060c084015260e0830190610d0d565b0390f35b503461010f578060031936011261010f5760206001600160a01b0360025416604051908152f35b503461010f578060031936011261010f5760206001600160a01b0360015416604051908152f35b905034610a53576020366003190112610a535760043563ffffffff60e01b8116809103610ba25760209250637965db0b60e01b8114908115610b91575b5015158152f35b6301ffc9a760e01b14905038610b8a565b8280fd5b600454811015610bc55760046000526007602060002091020190600090565b634e487b7160e01b600052603260045260246000fd5b90600182811c92168015610c0b575b6020831014610bf557565b634e487b7160e01b600052602260045260246000fd5b91607f1691610bea565b60e0810190811067ffffffffffffffff821117610c3157604052565b634e487b7160e01b600052604160045260246000fd5b90601f8019910116810190811067ffffffffffffffff821117610c3157604052565b9060405191826000825492610c7d84610bdb565b8084529360018116908115610ceb5750600114610ca4575b50610ca292500383610c47565b565b90506000929192526020600020906000915b818310610ccf575050906020610ca29282010138610c95565b6020919350806001915483858901015201910190918492610cb6565b905060209250610ca294915060ff191682840152151560051b82010138610c95565b919082519283825260005b848110610d39575050826000602080949584010152601f8019910116010190565b80602080928401015182828601015201610d18565b9181601f84011215610d7c5782359167ffffffffffffffff8311610d7c5760208381860195010111610d7c57565b600080fd5b600435906001600160a01b0382168203610d7c57565b602435906001600160a01b0382168203610d7c57565b8054821015610bc55760005260206000200190600090565b908060209392818452848401376000828201840152601f01601f1916010190565b67ffffffffffffffff8111610c315760051b60200190565b8051821015610bc55760209160051b010190565b80600052600060205260406000206001600160a01b03331660005260205260ff6040600020541615610e415750565b63e2517d3f60e01b6000523360045260245260446000fd5b80600052600060205260406000206001600160a01b03831660005260205260ff6040600020541615600014610eec5780600052600060205260406000206001600160a01b0383166000526020526040600020600160ff198254161790556001600160a01b03339216907f2f8788117e7eff1d82e926ec794901d17c78024a50270940304540a733656f0d600080a4600190565b5050600090565b80600052600060205260406000206001600160a01b03831660005260205260ff60406000205416600014610eec5780600052600060205260406000206001600160a01b038316600052602052604060002060ff1981541690556001600160a01b03339216907ff6391f5c32d9c69d2a47ea670b442974b53935d1edc7fd64eb21e047a839171b600080a460019056fea2646970667358221220a4f1b7fe789afb4fe33c747ace8778d996d233c3e2ff7cbafaacb0a5e2f88b0964736f6c634300081c0033",
  "linkReferences": {},
  "deployedLinkReferences": {}
}