{
  "_format": "hh-sol-artifact-1",
  "contractName": "CarbonRetireNFT",
  "sourceName": "contracts/CarbonRetireNFT.sol",
  "abi": [
    {
      "inputs": [
        {
          "internalType": "string",
          "name": "baseURI_",
          "type": "string"
        }
      ],
      "stateMutability": "nonpayable",
      "type": "constructor"
    },
    {
      "inputs": [],
      "name": "AccessControlBadConfirmation",
      "type": "error"
    },
    {
      "inputs": [
        {
          "internalType": "address",
          "name": "account",
          "type": "address"
        },
        {
          "internalType": "bytes32",
          "name": "neededRole",
          "type": "bytes32"
        }
      ],
      "name": "AccessControlUnauthorizedAccount",
      "type": "error"
    },
    {
      "inputs": [
        {
          "internalType": "address",
          "name": "sender",
          "type": "address"
        },
        {
          "internalType": "uint256",
          "name": "tokenId",
          "type": "uint256"
        },
        {
          "internalType": "address",
          "name": "owner",
          "type": "address"
        }
      ],
      "name": "ERC721IncorrectOwner",
      "type": "error"
    },
    {
      "inputs": [
        {
          "internalType": "address",
          "name": "operator",
          "type": "address"
        },
        {
          "internalType": "uint256",
          "name": "tokenId",
          "type": "uint256"
        }
      ],
      "name": "ERC721InsufficientApproval",
      "type": "error"
    },
    {
      "inputs": [
        {
          "internalType": "address",
          "name": "approver",
          "type": "address"
        }
      ],
      "name": "ERC721InvalidApprover",
      "type": "error"
    },
    {
      "inputs": [
        {
          "internalType": "address",
          "name": "operator",
          "type": "address"
        }
      ],
      "name": "ERC721InvalidOperator",
      "type": "error"
    },
    {
      "inputs": [
        {
          "internalType": "address",
          "name": "owner",
          "type": "address"
        }
      ],
      "name": "ERC721InvalidOwner",
      "type": "error"
    },
    {
      "inputs": [
        {
          "internalType": "address",
          "name": "receiver",
          "type": "address"
        }
      ],
      "name": "ERC721InvalidReceiver",
      "type": "error"
    },
    {
      "inputs": [
        {
          "internalType": "address",
          "name": "sender",
          "type": "address"
        }
      ],
      "name": "ERC721InvalidSender",
      "type": "error"
    },
    {
      "inputs": [
        {
          "internalType": "uint256",
          "name": "tokenId",
          "type": "uint256"
        }
      ],
      "name": "ERC721NonexistentToken",
      "type": "error"
    },
    {
      "anonymous": false,
      "inputs": [
        {
          "indexed": true,
          "internalType": "address",
          "name": "owner",
          "type": "address"
        },
        {
          "indexed": true,
          "internalType": "address",
          "name": "approved",
          "type": "address"
        },
        {
          "indexed": true,
          "internalType": "uint256",
          "name": "tokenId",
          "type": "uint256"
        }
      ],
      "name": "Approval",
      "type": "event"
    },
    {
      "anonymous": false,
      "inputs": [
        {
          "indexed": true,
          "internalType": "address",
          "name": "owner",
          "type": "address"
        },
        {
          "indexed": true,
          "internalType": "address",
          "name": "operator",
          "type": "address"
        },
        {
          "indexed": false,
          "internalType": "bool",
          "name": "approved",
          "type": "bool"
        }
      ],
      "name": "ApprovalForAll",
      "type": "event"
    },
    {
      "anonymous": false,
      "inputs": [
        {
          "indexed": true,
          "internalType": "bytes32",
          "name": "role",
          "type": "bytes32"
        },
        {
          "indexed": true,
          "internalType": "bytes32",
          "name": "previousAdminRole",
          "type": "bytes32"
        },
        {
          "indexed": true,
          "internalType": "bytes32",
          "name": "newAdminRole",
          "type": "bytes32"
        }
      ],
      "name": "RoleAdminChanged",
      "type": "event"
    },
    {
      "anonymous": false,
      "inputs": [
        {
          "indexed": true,
          "internalType": "bytes32",
          "name": "role",
          "type": "bytes32"
        },
        {
          "indexed": true,
          "internalType": "address",
          "name": "account",
          "type": "address"
        },
        {
          "indexed": true,
          "internalType": "address",
          "name": "sender",
          "type": "address"
        }
      ],
      "name": "RoleGranted",
      "type": "event"
    },
    {
      "anonymous": false,
      "inputs": [
        {
          "indexed": true,
          "internalType": "bytes32",
          "name": "role",
          "type": "bytes32"
        },
        {
          "indexed": true,
          "internalType": "address",
          "name": "account",
          "type": "address"
        },
        {
          "indexed": true,
          "internalType": "address",
          "name": "sender",
          "type": "address"
        }
      ],
      "name": "RoleRevoked",
      "type": "event"
    },
    {
      "anonymous": false,
      "inputs": [
        {
          "indexed": true,
          "internalType": "address",
          "name": "from",
          "type": "address"
        },
        {
          "indexed": true,
          "internalType": "address",
          "name": "to",
          "type": "address"
        },
        {
          "indexed": true,
          "internalType": "uint256",
          "name": "tokenId",
          "type": "uint256"
        }
      ],
      "name": "Transfer",
      "type": "event"
    },
    {
      "inputs": [],
      "name": "DEFAULT_ADMIN_ROLE",
      "outputs": [
        {
          "internalType": "bytes32",
          "name": "",
          "type": "bytes32"
        }
      ],
      "stateMutability": "view",
      "type": "function"
    },
    {
      "inputs": [],
      "name": "MINTER_ROLE",
      "outputs": [
        {
          "internalType": "bytes32",
          "name": "",
          "type": "bytes32"
        }
      ],
      "stateMutability": "view",
      "type": "function"
    },
    {
      "inputs": [
        {
          "internalType": "address",
          "name": "to",
          "type": "address"
        },
        {
          "internalType": "uint256",
          "name": "tokenId",
          "type": "uint256"
        }
      ],
      "name": "approve",
      "outputs": [],
      "stateMutability": "nonpayable",
      "type": "function"
    },
    {
      "inputs": [
        {
          "internalType": "address",
          "name": "owner",
          "type": "address"
        }
      ],
      "name": "balanceOf",
      "outputs": [
        {
          "internalType": "uint256",
          "name": "",
          "type": "uint256"
        }
      ],
      "stateMutability": "view",
      "type": "function"
    },
    {
      "inputs": [
        {
          "internalType": "uint256",
          "name": "tokenId",
          "type": "uint256"
        }
      ],
      "name": "getApproved",
      "outputs": [
        {
          "internalType": "address",
          "name": "",
          "type": "address"
        }
      ],
      "stateMutability": "view",
      "type": "function"
    },
    {
      "inputs": [
        {
          "internalType": "bytes32",
          "name": "role",
          "type": "bytes32"
        }
      ],
      "name": "getRoleAdmin",
      "outputs": [
        {
          "internalType": "bytes32",
          "name": "",
          "type": "bytes32"
        }
      ],
      "stateMutability": "view",
      "type": "function"
    },
    {
      "inputs": [
        {
          "internalType": "bytes32",
          "name": "role",
          "type": "bytes32"
        },
        {
          "internalType": "address",
          "name": "account",
          "type": "address"
        }
      ],
      "name": "grantRole",
      "outputs": [],
      "stateMutability": "nonpayable",
      "type": "function"
    },
    {
      "inputs": [
        {
          "internalType": "bytes32",
          "name": "role",
          "type": "bytes32"
        },
        {
          "internalType": "address",
          "name": "account",
          "type": "address"
        }
      ],
      "name": "hasRole",
      "outputs": [
        {
          "internalType": "bool",
          "name": "",
          "type": "bool"
        }
      ],
      "stateMutability": "view",
      "type": "function"
    },
    {
      "inputs": [
        {
          "internalType": "address",
          "name": "owner",
          "type": "address"
        },
        {
          "internalType": "address",
          "name": "operator",
          "type": "address"
        }
      ],
      "name": "isApprovedForAll",
      "outputs": [
        {
          "internalType": "bool",
          "name": "",
          "type": "bool"
        }
      ],
      "stateMutability": "view",
      "type": "function"
    },
    {
      "inputs": [
        {
          "internalType": "address",
          "name": "to",
          "type": "address"
        }
      ],
      "name": "mintCert",
      "outputs": [
        {
          "internalType": "uint256",
          "name": "",
          "type": "uint256"
        }
      ],
      "stateMutability": "nonpayable",
      "type": "function"
    },
    {
      "inputs": [],
      "name": "name",
      "outputs": [
        {
          "internalType": "string",
          "name": "",
          "type": "string"
        }
      ],
      "stateMutability": "view",
      "type": "function"
    },
    {
      "inputs": [
        {
          "internalType": "uint256",
          "name": "tokenId",
          "type": "uint256"
        }
      ],
      "name": "ownerOf",
      "outputs": [
        {
          "internalType": "address",
          "name": "",
          "type": "address"
        }
      ],
      "stateMutability": "view",
      "type": "function"
    },
    {
      "inputs": [
        {
          "internalType": "bytes32",
          "name": "role",
          "type": "bytes32"
        },
        {
          "internalType": "address",
          "name": "callerConfirmation",
          "type": "address"
        }
      ],
      "name": "renounceRole",
      "outputs": [],
      "stateMutability": "nonpayable",
      "type": "function"
    },
    {
      "inputs": [
        {
          "internalType": "bytes32",
          "name": "role",
          "type": "bytes32"
        },
        {
          "internalType": "address",
          "name": "account",
          "type": "address"
        }
      ],
      "name": "revokeRole",
      "outputs": [],
      "stateMutability": "nonpayable",
      "type": "function"
    },
    {
      "inputs": [
        {
          "internalType": "address",
          "name": "from",
          "type": "address"
        },
        {
          "internalType": "address",
          "name": "to",
          "type": "address"
        },
        {
          "internalType": "uint256",
          "name": "tokenId",
          "type": "uint256"
        }
      ],
      "name": "safeTransferFrom",
      "outputs": [],
      "stateMutability": "nonpayable",
      "type": "function"
    },
    {
      "inputs": [
        {
          "internalType": "address",
          "name": "from",
          "type": "address"
        },
        {
          "internalType": "address",
          "name": "to",
          "type": "address"
        },
        {
          "internalType": "uint256",
          "name": "tokenId",
          "type": "uint256"
        },
        {
          "internalType": "bytes",
          "name": "data",
          "type": "bytes"
        }
      ],
      "name": "safeTransferFrom",
      "outputs": [],
      "stateMutability": "nonpayable",
      "type": "function"
    },
    {
      "inputs": [
        {
          "internalType": "address",
          "name": "operator",
          "type": "address"
        },
        {
          "internalType": "bool",
          "name": "approved",
          "type": "bool"
        }
      ],
      "name": "setApprovalForAll",
      "outputs": [],
      "stateMutability": "nonpayable",
      "type": "function"
    },
    {
      "inputs": [
        {
          "internalType": "bytes4",
          "name": "interfaceId",
          "type": "bytes4"
        }
      ],
      "name": "supportsInterface",
      "outputs": [
        {
          "internalType": "bool",
          "name": "",
          "type": "bool"
        }
      ],
      "stateMutability": "view",
      "type": "function"
    },
    {
      "inputs": [],
      "name": "symbol",
      "outputs": [
        {
          "internalType": "string",
          "name": "",
          "type": "string"
        }
      ],
      "stateMutability": "view",
      "type": "function"
    },
    {
      "inputs": [],
      "name": "tokenId",
      "outputs": [
        {
          "internalType": "uint256",
          "name": "",
          "type": "uint256"
        }
      ],
      "stateMutability": "view",
      "type": "function"
    },
    {
      "inputs": [
        {
          "internalType": "uint256",
          "name": "tokenId",
          "type": "uint256"
        }
      ],
      "name": "tokenURI",
      "outputs": [
        {
          "internalType": "string",
          "name": "",
          "type": "string"
        }
      ],
      "stateMutability": "view",
      "type": "function"
    },
    {
      "inputs": [
        {
          "internalType": "address",
          "name": "from",
          "type": "address"
        },
        {
          "internalType": "address",
          "name": "to",
          "type": "address"
        },
        {
          "internalType": "uint256",
          "name": "tokenId",
          "type": "uint256"
        }
      ],
      "name": "transferFrom",
      "outputs": [],
      "stateMutability": "nonpayable",
      "type": "function"
    }
  ],
  "bytecode": "0x60806040523461057d576118c38038038061001981610582565b92833981019060208183031261057d578051906001600160401b03821161057d570181601f8201121561057d578051906001600160401b0382116103325761006a601f8301601f1916602001610582565b928284526020838301011161057d5760005b8281106105685783600060208583010152604061009881610582565b91601083526f10d85c989bdb94995d1a5c9950d95c9d60821b60208401526100bf82610582565b600681526510d490d1549560d21b602082015283519092906001600160401b03811161033257600054600181811c9116801561055e575b602082101461031257601f81116104fa575b50602094601f821160011461049457948192939495600092610489575b50508160011b916000199060031b1c1916176000555b82516001600160401b03811161033257600154600181811c9116801561047f575b602082101461031257601f811161041a575b506020601f82116001146103b357819293946000926103a8575b50508160011b916000199060031b1c1916176001555b331561037b57815115610348576101b4336105a7565b506101be33610623565b5081516001600160401b03811161033257600954600181811c91168015610328575b602082101461031257601f81116102ad575b50602092601f8211600114610248579281929360009261023d575b50508160011b916000199060031b1c1916176009555b600160ff196008541617600855516111a390816106e08239f35b01519050838061020d565b601f198216936009600052806000209160005b868110610295575083600195961061027c575b505050811b01600955610223565b015160001960f88460031b161c1916905583808061026e565b9192602060018192868501518155019401920161025b565b60096000527f6e1540171b6c0c960b71a7020d9f60077f6af931a8bbf590da0223dacf75c7af601f830160051c81019160208410610308575b601f0160051c01905b8181106102fc57506101f2565b600081556001016102ef565b90915081906102e6565b634e487b7160e01b600052602260045260246000fd5b90607f16906101e0565b634e487b7160e01b600052604160045260246000fd5b5162461bcd60e51b815260206004820152600d60248201526c6261736555524920656d70747960981b6044820152606490fd5b5162461bcd60e51b8152602060048201526007602482015266061646d696e3d360cc1b6044820152606490fd5b015190508480610188565b601f198216906001600052806000209160005b818110610402575095836001959697106103e9575b505050811b0160015561019e565b015160001960f88460031b161c191690558480806103db565b9192602060018192868b0151815501940192016103c6565b60016000527fb10e2d527612073b26eecdfd717e6a320cf44b4afac2b0732d9fcbe2b7fa0cf6601f830160051c81019160208410610475575b601f0160051c01905b818110610469575061016e565b6000815560010161045c565b9091508190610453565b90607f169061015c565b015190508580610125565b601f1982169560008052806000209160005b8881106104e2575083600195969798106104c9575b505050811b0160005561013b565b015160001960f88460031b161c191690558580806104bb565b919260206001819286850151815501940192016104a6565b600080527f290decd9548b62a8d60345a988386fc84ba6bc95484008f6362f93160ef3e563601f830160051c81019160208410610554575b601f0160051c01905b8181106105485750610108565b6000815560010161053b565b9091508190610532565b90607f16906100f6565b8060208092840101518282870101520161007c565b600080fd5b6040519190601f01601f191682016001600160401b0381118382101761033257604052565b6001600160a01b03811660009081526000805160206118a3833981519152602052604090205460ff1661061d576001600160a01b031660008181526000805160206118a383398151915260205260408120805460ff191660011790553391906000805160206118838339815191528180a4600190565b50600090565b6001600160a01b03811660009081527f3195c024b2ddd6d9b8f6c836aa52f67fe69376c8903d009b80229b3ce4425f51602052604090205460ff1661061d576001600160a01b031660008181527f3195c024b2ddd6d9b8f6c836aa52f67fe69376c8903d009b80229b3ce4425f5160205260408120805460ff191660011790553391907f9f2df0fed2c77648de5860a4cc508cd0818c85b8b8a1ab4ceeef8d981c8956a6906000805160206118838339815191529080a460019056fe608080604052600436101561001357600080fd5b600090813560e01c90816301ffc9a714610b6c5750806306fdde0314610ab1578063081812fc14610a74578063095ea7b31461098857806317d70f7c1461096a57806323b872dd14610952578063248a9ca31461091c5780632f2ff15d146108db57806336568abe1461089657806342842e0e146108665780636352211e1461083657806370a08231146107e357806391d148541461079b57806395d89b411461068e578063a217fddf14610672578063a22cb465146105d0578063b88d4fde14610535578063c87b56dd146104d9578063d53913931461049e578063d547741f14610454578063e985e9c5146103ff5763f08e48d61461011357600080fd5b346103435760203660031901126103435761012c610c34565b3360009081527f3195c024b2ddd6d9b8f6c836aa52f67fe69376c8903d009b80229b3ce4425f51602052604090205460ff16156103c65760075460001981146103b25760010180600755602091604051906101878483610c9f565b8482526001600160a01b03811694851561039e576000848152600286526001600160a01b036040822054168588827fddf252ad1be2c89b69c2b068fc378daa952ba7f163c4a11628f55a4df523b3ef8115159586610365575b83815260038c5260408082208054600101905585825260028d528120805473ffffffffffffffffffffffffffffffffffffffff19168517905580a45061035157503b610230575b50604051908152f35b8261026a9160405180938192630a85bd0160e11b835233600484015260006024840152866044840152608060648401526084830190610bf3565b03816000885af1809160009161030c575b50906102d45750503d156102cc573d9061029482610cd7565b916102a26040519384610c9f565b82523d60008284013e5b815191826102c95783633250574960e11b60005260045260246000fd5b01fd5b6060906102ac565b919290916001600160e01b03191663757a42ff60e11b016102f85750819038610227565b633250574960e11b60005260045260246000fd5b8481813d831161034a575b6103218183610c9f565b810103126103465751906001600160e01b03198216820361034357503861027b565b80fd5b5080fd5b503d610317565b6339e3563760e11b81526004819052602490fd5b61038685600052600460205260406000206001600160a01b03198154169055565b82815260038c526040812080546000190190556101e0565b633250574960e11b81526004819052602490fd5b634e487b7160e01b83526011600452602483fd5b63e2517d3f60e01b600052336004527f9f2df0fed2c77648de5860a4cc508cd0818c85b8b8a1ab4ceeef8d981c8956a660245260446000fd5b5034610343576040366003190112610343576001600160a01b036040610423610c34565b928261042d610c4f565b941681526005602052209116600052602052602060ff604060002054166040519015158152f35b50346103435760403660031901126103435761049a600435610474610c4f565b9061049561049082600052600660205260016040600020015490565b610ed5565b610fb6565b5080f35b503461034357806003193601126103435760206040517f9f2df0fed2c77648de5860a4cc508cd0818c85b8b8a1ab4ceeef8d981c8956a68152f35b5034610343576020366003190112610343576104f6600435610e9e565b5080604051610506602082610c9f565b5250610531604051610519602082610c9f565b60008152604051918291602083526020830190610bf3565b0390f35b50346103435760803660031901126103435761054f610c34565b610557610c4f565b6044356064359167ffffffffffffffff83116105cc57366023840112156105cc578260040135938561058886610cd7565b946105966040519687610c9f565b868652366024888301011161034657866105c99760246020930183890137860101526105c3838383610cf3565b33611045565b80f35b8480fd5b5034610343576040366003190112610343576105ea610c34565b6024359081151580920361066e576001600160a01b031690811561065a573383526005602052604083208284526020526040832060ff1981541660ff83161790556040519081527f17307eab39ab6107e8899845ad3d59bd9653f200f220920489ca2b5937696c3160203392a380f35b630b61174360e31b83526004829052602483fd5b8280fd5b5034610343578060031936011261034357602090604051908152f35b50346103435780600319360112610343576040519080600154908160011c91600181168015610791575b60208410811461077d5783865290811561075657506001146106f9575b610531846106e581860382610c9f565b604051918291602083526020830190610bf3565b600181527fb10e2d527612073b26eecdfd717e6a320cf44b4afac2b0732d9fcbe2b7fa0cf6939250905b80821061073c575090915081016020016106e5826106d5565b919260018160209254838588010152019101909291610723565b60ff191660208087019190915292151560051b850190920192506106e591508390506106d5565b634e487b7160e01b83526022600452602483fd5b92607f16926106b8565b50346103435760403660031901126103435760ff60406020926107bc610c4f565b6004358252600685526001600160a01b038383209116825284522054166040519015158152f35b5034610343576020366003190112610343576001600160a01b03610805610c34565b168015610822578160409160209352600383522054604051908152f35b6322718ad960e21b82526004829052602482fd5b5034610343576020366003190112610343576020610855600435610e9e565b6001600160a01b0360405191168152f35b5034610343576105c961087836610c65565b9060405192610888602085610c9f565b8584526105c3838383610cf3565b5034610343576040366003190112610343576108b0610c4f565b336001600160a01b038216036108cc5761049a90600435610fb6565b63334bd91960e11b8252600482fd5b50346103435760403660031901126103435761049a6004356108fb610c4f565b9061091761049082600052600660205260016040600020015490565b610f1c565b503461034357602036600319011261034357602061094a600435600052600660205260016040600020015490565b604051908152f35b5034610343576105c961096436610c65565b91610cf3565b50346103435780600319360112610343576020600754604051908152f35b5034610343576040366003190112610343576109a2610c34565b6024356109ae81610e9e565b33151580610a61575b80610a2e575b610a1b5781906001600160a01b0380851691167f8c5be1e5ebec7d5bd14f71427d1e84f3dd0314c0f7b2291e5b200ac8c7c3b9258680a4825260046020526001600160a01b036040832091166001600160a01b031982541617905580f35b63a9fbf51f60e01b845233600452602484fd5b506001600160a01b03811684526005602052604084206001600160a01b033316855260205260ff604085205416156109bd565b50336001600160a01b03821614156109b7565b5034610343576020366003190112610343576001600160a01b036040602092600435610a9f81610e9e565b50815260048452205416604051908152f35b503461034357806003193601126103435760405190808054908160011c91600181168015610b62575b60208410811461077d578386529081156107565750600114610b0657610531846106e581860382610c9f565b8080527f290decd9548b62a8d60345a988386fc84ba6bc95484008f6362f93160ef3e563939250905b808210610b48575090915081016020016106e5826106d5565b919260018160209254838588010152019101909291610b2f565b92607f1692610ada565b9050346103465760203660031901126103465760043563ffffffff60e01b811680910361066e5760209250637965db0b60e01b8114908115610bb0575b5015158152f35b6380ac58cd60e01b811491508115610be2575b8115610bd1575b5038610ba9565b6301ffc9a760e01b14905038610bca565b635b5e139f60e01b81149150610bc3565b919082519283825260005b848110610c1f575050826000602080949584010152601f8019910116010190565b80602080928401015182828601015201610bfe565b600435906001600160a01b0382168203610c4a57565b600080fd5b602435906001600160a01b0382168203610c4a57565b6060906003190112610c4a576004356001600160a01b0381168103610c4a57906024356001600160a01b0381168103610c4a579060443590565b90601f8019910116810190811067ffffffffffffffff821117610cc157604052565b634e487b7160e01b600052604160045260246000fd5b67ffffffffffffffff8111610cc157601f01601f191660200190565b91906001600160a01b0316918215610e88576000908282526002602052826001600160a01b03604084205416948533151580610de6575b507fddf252ad1be2c89b69c2b068fc378daa952ba7f163c4a11628f55a4df523b3ef6001600160a01b039582610dac575b8381526003602052604081206001815401905584815260026020526040812084881982541617905580a416808303610d9257505050565b6364283d7b60e01b60005260045260245260445260646000fd5b610dcd85600052600460205260406000206001600160a01b03198154169055565b8281526003602052604081208054600019019055610d5b565b91939492505080610e31575b15610e0257919083908538610d2a565b839085610e1b57602491637e27328960e01b8252600452fd5b60449163177e802f60e01b825233600452602452fd5b503385148015610e5f575b80610df257508381526004602052336001600160a01b0360408320541614610df2565b508481526005602052604081206001600160a01b033316825260205260ff604082205416610e3c565b633250574960e11b600052600060045260246000fd5b8060005260026020526001600160a01b0360406000205416908115610ec1575090565b637e27328960e01b60005260045260246000fd5b80600052600660205260406000206001600160a01b03331660005260205260ff6040600020541615610f045750565b63e2517d3f60e01b6000523360045260245260446000fd5b80600052600660205260406000206001600160a01b03831660005260205260ff6040600020541615600014610faf5780600052600660205260406000206001600160a01b0383166000526020526040600020600160ff198254161790556001600160a01b03339216907f2f8788117e7eff1d82e926ec794901d17c78024a50270940304540a733656f0d600080a4600190565b5050600090565b80600052600660205260406000206001600160a01b03831660005260205260ff60406000205416600014610faf5780600052600660205260406000206001600160a01b038316600052602052604060002060ff1981541690556001600160a01b03339216907ff6391f5c32d9c69d2a47ea670b442974b53935d1edc7fd64eb21e047a839171b600080a4600190565b93909293823b611057575b5050505050565b61109e6001600160a01b0392836020951696846040519788968796630a85bd0160e11b88521660048701521660248501526044840152608060648401526084830190610bf3565b03816000865af1809160009161112a575b509061110857503d15611101573d6110c681610cd7565b906110d46040519283610c9f565b81523d6000602083013e5b805190816110fc5782633250574960e11b60005260045260246000fd5b602001fd5b60606110df565b6001600160e01b03191663757a42ff60e11b016102f857503880808080611050565b6020813d602011611165575b8161114360209383610c9f565b810103126103465751906001600160e01b0319821682036103435750386110af565b3d915061113656fea2646970667358221220c4b7f4193ce37f123ebb3762f56cff467ca0ac95d94522eb5da1305f3298102564736f6c634300081c00332f8788117e7eff1d82e926ec794901d17c78024a50270940304540a733656f0d54cdd369e4e8a8515e52ca72ec816c2101831ad1f18bf44102ed171459c9b4f8",
  "linkReferences": {},
  "deployedLinkReferences": {}
}