{
  "_format": "hh-sol-artifact-1",
  "contractName": "CarbonProjectNFT",
  "sourceName": "contracts/CarbonProjectNFT.sol",
  "abi": [
    {
      "inputs": [],
      "stateMutability": "nonpayable",
      "type": "constructor"
    },
    {
      "inputs": [],
      "name": "AccessControlBadConfirmation",
      "type": "error"
    },
    {
      "inputs": [
        {
          "internalType": "address",
          "name": "account",
          "type": "address"
        },
        {
          "internalType": "bytes32",
          "name": "neededRole",
          "type": "bytes32"
        }
      ],
      "name": "AccessControlUnauthorizedAccount",
      "type": "error"
    },
    {
      "inputs": [
        {
          "internalType": "address",
          "name": "sender",
          "type": "address"
        },
        {
          "internalType": "uint256",
          "name": "tokenId",
          "type": "uint256"
        },
        {
          "internalType": "address",
          "name": "owner",
          "type": "address"
        }
      ],
      "name": "ERC721IncorrectOwner",
      "type": "error"
    },
    {
      "inputs": [
        {
          "internalType": "address",
          "name": "operator",
          "type": "address"
        },
        {
          "internalType": "uint256",
          "name": "tokenId",
          "type": "uint256"
        }
      ],
      "name": "ERC721InsufficientApproval",
      "type": "error"
    },
    {
      "inputs": [
        {
          "internalType": "address",
          "name": "approver",
          "type": "address"
        }
      ],
      "name": "ERC721InvalidApprover",
      "type": "error"
    },
    {
      "inputs": [
        {
          "internalType": "address",
          "name": "operator",
          "type": "address"
        }
      ],
      "name": "ERC721InvalidOperator",
      "type": "error"
    },
    {
      "inputs": [
        {
          "internalType": "address",
          "name": "owner",
          "type": "address"
        }
      ],
      "name": "ERC721InvalidOwner",
      "type": "error"
    },
    {
      "inputs": [
        {
          "internalType": "address",
          "name": "receiver",
          "type": "address"
        }
      ],
      "name": "ERC721InvalidReceiver",
      "type": "error"
    },
    {
      "inputs": [
        {
          "internalType": "address",
          "name": "sender",
          "type": "address"
        }
      ],
      "name": "ERC721InvalidSender",
      "type": "error"
    },
    {
      "inputs": [
        {
          "internalType": "uint256",
          "name": "tokenId",
          "type": "uint256"
        }
      ],
      "name": "ERC721NonexistentToken",
      "type": "error"
    },
    {
      "inputs": [],
      "name": "ReentrancyGuardReentrantCall",
      "type": "error"
    },
    {
      "anonymous": false,
      "inputs": [
        {
          "indexed": true,
          "internalType": "address",
          "name": "owner",
          "type": "address"
        },
        {
          "indexed": true,
          "internalType": "address",
          "name": "approved",
          "type": "address"
        },
        {
          "indexed": true,
          "internalType": "uint256",
          "name": "tokenId",
          "type": "uint256"
        }
      ],
      "name": "Approval",
      "type": "event"
    },
    {
      "anonymous": false,
      "inputs": [
        {
          "indexed": true,
          "internalType": "address",
          "name": "owner",
          "type": "address"
        },
        {
          "indexed": true,
          "internalType": "address",
          "name": "operator",
          "type": "address"
        },
        {
          "indexed": false,
          "internalType": "bool",
          "name": "approved",
          "type": "bool"
        }
      ],
      "name": "ApprovalForAll",
      "type": "event"
    },
    {
      "anonymous": false,
      "inputs": [
        {
          "indexed": true,
          "internalType": "address",
          "name": "buyer",
          "type": "address"
        },
        {
          "indexed": true,
          "internalType": "uint256",
          "name": "tokenId",
          "type": "uint256"
        },
        {
          "indexed": false,
          "internalType": "uint256",
          "name": "retireCertId",
          "type": "uint256"
        }
      ],
      "name": "Purchased",
      "type": "event"
    },
    {
      "anonymous": false,
      "inputs": [
        {
          "indexed": true,
          "internalType": "address",
          "name": "account",
          "type": "address"
        },
        {
          "indexed": true,
          "internalType": "uint256",
          "name": "tokenId",
          "type": "uint256"
        },
        {
          "indexed": false,
          "internalType": "uint256",
          "name": "retireCertId",
          "type": "uint256"
        }
      ],
      "name": "Retired",
      "type": "event"
    },
    {
      "anonymous": false,
      "inputs": [
        {
          "indexed": true,
          "internalType": "bytes32",
          "name": "role",
          "type": "bytes32"
        },
        {
          "indexed": true,
          "internalType": "bytes32",
          "name": "previousAdminRole",
          "type": "bytes32"
        },
        {
          "indexed": true,
          "internalType": "bytes32",
          "name": "newAdminRole",
          "type": "bytes32"
        }
      ],
      "name": "RoleAdminChanged",
      "type": "event"
    },
    {
      "anonymous": false,
      "inputs": [
        {
          "indexed": true,
          "internalType": "bytes32",
          "name": "role",
          "type": "bytes32"
        },
        {
          "indexed": true,
          "internalType": "address",
          "name": "account",
          "type": "address"
        },
        {
          "indexed": true,
          "internalType": "address",
          "name": "sender",
          "type": "address"
        }
      ],
      "name": "RoleGranted",
      "type": "event"
    },
    {
      "anonymous": false,
      "inputs": [
        {
          "indexed": true,
          "internalType": "bytes32",
          "name": "role",
          "type": "bytes32"
        },
        {
          "indexed": true,
          "internalType": "address",
          "name": "account",
          "type": "address"
        },
        {
          "indexed": true,
          "internalType": "address",
          "name": "sender",
          "type": "address"
        }
      ],
      "name": "RoleRevoked",
      "type": "event"
    },
    {
      "anonymous": false,
      "inputs": [
        {
          "indexed": true,
          "internalType": "address",
          "name": "from",
          "type": "address"
        },
        {
          "indexed": true,
          "internalType": "address",
          "name": "to",
          "type": "address"
        },
        {
          "indexed": true,
          "internalType": "uint256",
          "name": "tokenId",
          "type": "uint256"
        }
      ],
      "name": "Transfer",
      "type": "event"
    },
    {
      "anonymous": false,
      "inputs": [
        {
          "indexed": true,
          "internalType": "uint256",
          "name": "projectId",
          "type": "uint256"
        },
        {
          "indexed": true,
          "internalType": "uint256",
          "name": "tokenId",
          "type": "uint256"
        },
        {
          "indexed": true,
          "internalType": "address",
          "name": "from",
          "type": "address"
        },
        {
          "indexed": false,
          "internalType": "address",
          "name": "to",
          "type": "address"
        }
      ],
      "name": "TransferTrace",
      "type": "event"
    },
    {
      "inputs": [],
      "name": "DEFAULT_ADMIN_ROLE",
      "outputs": [
        {
          "internalType": "bytes32",
          "name": "",
          "type": "bytes32"
        }
      ],
      "stateMutability": "view",
      "type": "function"
    },
    {
      "inputs": [],
      "name": "MINTER_ROLE",
      "outputs": [
        {
          "internalType": "bytes32",
          "name": "",
          "type": "bytes32"
        }
      ],
      "stateMutability": "view",
      "type": "function"
    },
    {
      "inputs": [],
      "name": "_name",
      "outputs": [
        {
          "internalType": "string",
          "name": "",
          "type": "string"
        }
      ],
      "stateMutability": "view",
      "type": "function"
    },
    {
      "inputs": [],
      "name": "_symbol",
      "outputs": [
        {
          "internalType": "string",
          "name": "",
          "type": "string"
        }
      ],
      "stateMutability": "view",
      "type": "function"
    },
    {
      "inputs": [
        {
          "internalType": "address",
          "name": "to",
          "type": "address"
        }
      ],
      "name": "adminMint",
      "outputs": [
        {
          "internalType": "uint256",
          "name": "",
          "type": "uint256"
        }
      ],
      "stateMutability": "nonpayable",
      "type": "function"
    },
    {
      "inputs": [
        {
          "internalType": "uint256",
          "name": "amount",
          "type": "uint256"
        }
      ],
      "name": "adminMintBatch",
      "outputs": [],
      "stateMutability": "nonpayable",
      "type": "function"
    },
    {
      "inputs": [
        {
          "internalType": "address",
          "name": "to",
          "type": "address"
        },
        {
          "internalType": "uint256",
          "name": "tokenId",
          "type": "uint256"
        }
      ],
      "name": "approve",
      "outputs": [],
      "stateMutability": "nonpayable",
      "type": "function"
    },
    {
      "inputs": [
        {
          "internalType": "address",
          "name": "owner",
          "type": "address"
        }
      ],
      "name": "balanceOf",
      "outputs": [
        {
          "internalType": "uint256",
          "name": "",
          "type": "uint256"
        }
      ],
      "stateMutability": "view",
      "type": "function"
    },
    {
      "inputs": [],
      "name": "buy",
      "outputs": [
        {
          "internalType": "uint256",
          "name": "",
          "type": "uint256"
        }
      ],
      "stateMutability": "nonpayable",
      "type": "function"
    },
    {
      "inputs": [],
      "name": "enforceNoResale",
      "outputs": [
        {
          "internalType": "bool",
          "name": "",
          "type": "bool"
        }
      ],
      "stateMutability": "view",
      "type": "function"
    },
    {
      "inputs": [
        {
          "internalType": "uint256",
          "name": "tokenId",
          "type": "uint256"
        }
      ],
      "name": "getApproved",
      "outputs": [
        {
          "internalType": "address",
          "name": "",
          "type": "address"
        }
      ],
      "stateMutability": "view",
      "type": "function"
    },
    {
      "inputs": [
        {
          "internalType": "bytes32",
          "name": "role",
          "type": "bytes32"
        }
      ],
      "name": "getRoleAdmin",
      "outputs": [
        {
          "internalType": "bytes32",
          "name": "",
          "type": "bytes32"
        }
      ],
      "stateMutability": "view",
      "type": "function"
    },
    {
      "inputs": [
        {
          "internalType": "bytes32",
          "name": "role",
          "type": "bytes32"
        },
        {
          "internalType": "address",
          "name": "account",
          "type": "address"
        }
      ],
      "name": "grantRole",
      "outputs": [],
      "stateMutability": "nonpayable",
      "type": "function"
    },
    {
      "inputs": [
        {
          "internalType": "bytes32",
          "name": "role",
          "type": "bytes32"
        },
        {
          "internalType": "address",
          "name": "account",
          "type": "address"
        }
      ],
      "name": "hasRole",
      "outputs": [
        {
          "internalType": "bool",
          "name": "",
          "type": "bool"
        }
      ],
      "stateMutability": "view",
      "type": "function"
    },
    {
      "inputs": [
        {
          "internalType": "string",
          "name": "name_",
          "type": "string"
        },
        {
          "internalType": "string",
          "name": "symbol_",
          "type": "string"
        },
        {
          "internalType": "uint256",
          "name": "_projectId",
          "type": "uint256"
        },
        {
          "internalType": "address",
          "name": "admin",
          "type": "address"
        },
        {
          "internalType": "address",
          "name": "_paymentToken",
          "type": "address"
        },
        {
          "internalType": "address",
          "name": "_retireContract",
          "type": "address"
        },
        {
          "internalType": "address",
          "name": "_treasury",
          "type": "address"
        },
        {
          "internalType": "uint256",
          "name": "_price",
          "type": "uint256"
        },
        {
          "internalType": "uint256",
          "name": "_maxSupply",
          "type": "uint256"
        },
        {
          "internalType": "bool",
          "name": "_enforceNoResale",
          "type": "bool"
        },
        {
          "internalType": "string",
          "name": "baseURI_",
          "type": "string"
        },
        {
          "internalType": "address",
          "name": "minter_",
          "type": "address"
        }
      ],
      "name": "initialize",
      "outputs": [],
      "stateMutability": "nonpayable",
      "type": "function"
    },
    {
      "inputs": [
        {
          "internalType": "address",
          "name": "owner",
          "type": "address"
        },
        {
          "internalType": "address",
          "name": "operator",
          "type": "address"
        }
      ],
      "name": "isApprovedForAll",
      "outputs": [
        {
          "internalType": "bool",
          "name": "",
          "type": "bool"
        }
      ],
      "stateMutability": "view",
      "type": "function"
    },
    {
      "inputs": [],
      "name": "issuer",
      "outputs": [
        {
          "internalType": "address",
          "name": "",
          "type": "address"
        }
      ],
      "stateMutability": "view",
      "type": "function"
    },
    {
      "inputs": [],
      "name": "maxSupply",
      "outputs": [
        {
          "internalType": "uint256",
          "name": "",
          "type": "uint256"
        }
      ],
      "stateMutability": "view",
      "type": "function"
    },
    {
      "inputs": [],
      "name": "mintedCount",
      "outputs": [
        {
          "internalType": "uint256",
          "name": "",
          "type": "uint256"
        }
      ],
      "stateMutability": "view",
      "type": "function"
    },
    {
      "inputs": [],
      "name": "name",
      "outputs": [
        {
          "internalType": "string",
          "name": "",
          "type": "string"
        }
      ],
      "stateMutability": "view",
      "type": "function"
    },
    {
      "inputs": [],
      "name": "nextTokenId",
      "outputs": [
        {
          "internalType": "uint256",
          "name": "",
          "type": "uint256"
        }
      ],
      "stateMutability": "view",
      "type": "function"
    },
    {
      "inputs": [
        {
          "internalType": "uint256",
          "name": "tokenId",
          "type": "uint256"
        }
      ],
      "name": "ownerOf",
      "outputs": [
        {
          "internalType": "address",
          "name": "",
          "type": "address"
        }
      ],
      "stateMutability": "view",
      "type": "function"
    },
    {
      "inputs": [],
      "name": "paymentToken",
      "outputs": [
        {
          "internalType": "contract IERC20",
          "name": "",
          "type": "address"
        }
      ],
      "stateMutability": "view",
      "type": "function"
    },
    {
      "inputs": [],
      "name": "price",
      "outputs": [
        {
          "internalType": "uint256",
          "name": "",
          "type": "uint256"
        }
      ],
      "stateMutability": "view",
      "type": "function"
    },
    {
      "inputs": [],
      "name": "projectId",
      "outputs": [
        {
          "internalType": "uint256",
          "name": "",
          "type": "uint256"
        }
      ],
      "stateMutability": "view",
      "type": "function"
    },
    {
      "inputs": [
        {
          "internalType": "bytes32",
          "name": "role",
          "type": "bytes32"
        },
        {
          "internalType": "address",
          "name": "callerConfirmation",
          "type": "address"
        }
      ],
      "name": "renounceRole",
      "outputs": [],
      "stateMutability": "nonpayable",
      "type": "function"
    },
    {
      "inputs": [
        {
          "internalType": "uint256",
          "name": "tokenId",
          "type": "uint256"
        }
      ],
      "name": "retire",
      "outputs": [
        {
          "internalType": "uint256",
          "name": "",
          "type": "uint256"
        }
      ],
      "stateMutability": "nonpayable",
      "type": "function"
    },
    {
      "inputs": [],
      "name": "retireContract",
      "outputs": [
        {
          "internalType": "contract CarbonRetireNFT",
          "name": "",
          "type": "address"
        }
      ],
      "stateMutability": "view",
      "type": "function"
    },
    {
      "inputs": [
        {
          "internalType": "bytes32",
          "name": "role",
          "type": "bytes32"
        },
        {
          "internalType": "address",
          "name": "account",
          "type": "address"
        }
      ],
      "name": "revokeRole",
      "outputs": [],
      "stateMutability": "nonpayable",
      "type": "function"
    },
    {
      "inputs": [
        {
          "internalType": "address",
          "name": "from",
          "type": "address"
        },
        {
          "internalType": "address",
          "name": "to",
          "type": "address"
        },
        {
          "internalType": "uint256",
          "name": "tokenId",
          "type": "uint256"
        }
      ],
      "name": "safeTransferFrom",
      "outputs": [],
      "stateMutability": "nonpayable",
      "type": "function"
    },
    {
      "inputs": [
        {
          "internalType": "address",
          "name": "from",
          "type": "address"
        },
        {
          "internalType": "address",
          "name": "to",
          "type": "address"
        },
        {
          "internalType": "uint256",
          "name": "tokenId",
          "type": "uint256"
        },
        {
          "internalType": "bytes",
          "name": "data",
          "type": "bytes"
        }
      ],
      "name": "safeTransferFrom",
      "outputs": [],
      "stateMutability": "nonpayable",
      "type": "function"
    },
    {
      "inputs": [
        {
          "internalType": "address",
          "name": "operator",
          "type": "address"
        },
        {
          "internalType": "bool",
          "name": "approved",
          "type": "bool"
        }
      ],
      "name": "setApprovalForAll",
      "outputs": [],
      "stateMutability": "nonpayable",
      "type": "function"
    },
    {
      "inputs": [
        {
          "internalType": "bytes4",
          "name": "interfaceId",
          "type": "bytes4"
        }
      ],
      "name": "supportsInterface",
      "outputs": [
        {
          "internalType": "bool",
          "name": "",
          "type": "bool"
        }
      ],
      "stateMutability": "view",
      "type": "function"
    },
    {
      "inputs": [],
      "name": "symbol",
      "outputs": [
        {
          "internalType": "string",
          "name": "",
          "type": "string"
        }
      ],
      "stateMutability": "view",
      "type": "function"
    },
    {
      "inputs": [
        {
          "internalType": "uint256",
          "name": "tokenId",
          "type": "uint256"
        }
      ],
      "name": "tokenURI",
      "outputs": [
        {
          "internalType": "string",
          "name": "",
          "type": "string"
        }
      ],
      "stateMutability": "view",
      "type": "function"
    },
    {
      "inputs": [
        {
          "internalType": "address",
          "name": "from",
          "type": "address"
        },
        {
          "internalType": "address",
          "name": "to",
          "type": "address"
        },
        {
          "internalType": "uint256",
          "name": "tokenId",
          "type": "uint256"
        }
      ],
      "name": "transferFrom",
      "outputs": [],
      "stateMutability": "nonpayable",
      "type": "function"
    },
    {
      "inputs": [],
      "name": "treasury",
      "outputs": [
        {
          "internalType": "address",
          "name": "",
          "type": "address"
        }
      ],
      "stateMutability": "view",
      "type": "function"
    }
  ],
  "bytecode": "0x60806040523461033157604080519081016001600160401b0381118282101761023c576040908152600d82526c10d85c989bdb941c9bda9958dd609a1b602083015280519081016001600160401b0381118282101761023c57604052600581526410d413919560da1b6020820152600160005581516001600160401b03811161023c57600154600181811c91168015610327575b602082101461021c57601f81116102c2575b50602092601f821160011461025d5792819293600092610252575b50508160011b916000199060031b1c1916176001555b80516001600160401b03811161023c57600254600181811c91168015610232575b602082101461021c57601f81116101b7575b50602091601f821160011461015357918192600092610148575b50508160011b916000199060031b1c1916176002555b60405161261b90816103378239f35b015190503880610123565b601f198216926002600052806000209160005b85811061019f57508360019510610186575b505050811b01600255610139565b015160001960f88460031b161c19169055388080610178565b91926020600181928685015181550194019201610166565b60026000527f405787fa12a823e0f2b7631cc41b3ba8828b3321ca811111fa75cd3aa3bb5ace601f830160051c81019160208410610212575b601f0160051c01905b8181106102065750610109565b600081556001016101f9565b90915081906101f0565b634e487b7160e01b600052602260045260246000fd5b90607f16906100f7565b634e487b7160e01b600052604160045260246000fd5b0151905038806100c0565b601f198216936001600052806000209160005b8681106102aa5750836001959610610291575b505050811b016001556100d6565b015160001960f88460031b161c19169055388080610283565b91926020600181928685015181550194019201610270565b60016000527fb10e2d527612073b26eecdfd717e6a320cf44b4afac2b0732d9fcbe2b7fa0cf6601f830160051c8101916020841061031d575b601f0160051c01905b81811061031157506100a5565b60008155600101610304565b90915081906102fb565b90607f1690610093565b600080fdfe608080604052600436101561001357600080fd5b60003560e01c90816301ffc9a714611ac65750806306fdde0314611a1e578063081812fc146119df578063095ea7b3146118e95780631d143848146118c257806323b872dd146118ab578063248a9ca31461187e5780632f2ff15d1461183e5780633013ce291461181757806336568abe146117d15780633790cf571461160a5780633fafa127146115ec57806342842e0e146115bc57806361d027b3146115955780636352211e146115665780636b7285d31461153f57806370a08231146114e957806375794a3c146114cb57806391d148541461147d57806395d89b41146113d55780639769dc0e14611342578063a035b1fe14611324578063a217fddf14611308578063a22cb46514611267578063a2e1054d14611182578063a6f2ae3a14610f07578063acc1ef6f146107e9578063b09f126614610741578063b88d4fde146106ac578063c87b56dd146103de578063cf721b15146103c0578063d28d8852146102db578063d5391393146102a0578063d547741f14610259578063d5abeb011461023b578063e985e9c5146101de5763f3680960146101b657600080fd5b346101d95760003660031901126101d957602060ff601354166040519015158152f35b600080fd5b346101d95760403660031901126101d9576101f7611b93565b6001600160a01b03610207611ba9565b911660005260066020526001600160a01b0360406000209116600052602052602060ff604060002054166040519015158152f35b346101d95760003660031901126101d9576020601054604051908152f35b346101d95760403660031901126101d95761029e600435610278611ba9565b9061029961029482600052600760205260016040600020015490565b611fa7565b612208565b005b346101d95760003660031901126101d95760206040517f9f2df0fed2c77648de5860a4cc508cd0818c85b8b8a1ab4ceeef8d981c8956a68152f35b346101d95760003660031901126101d9576040516000600a546102fd81611c27565b808452906001811690811561039c575060011461033d575b6103398361032581850382611c61565b604051918291602083526020830190611b6e565b0390f35b600a60009081527fc65a7bb8d6351c1cf70c95a316cc6a92839c986682d98bc35f958f4883f9d2a8939250905b80821061038257509091508101602001610325610315565b91926001816020925483858801015201910190929161036a565b60ff191660208086019190915291151560051b840190910191506103259050610315565b346101d95760003660031901126101d9576020601154604051908152f35b346101d95760203660031901126101d9576004356103fb81611f12565b50604051601254919060008161041085611c27565b9182825260208201956001811690816000146106905750600114610630575b61043b92500382611c61565b80516000901561061257508190826000937a184f03e93ff9f4daa797ed6e38ed64bf6a1f0100000000000000008110156105e7575b50806d04ee2d6d415b85acef8100000000600a9210156105cc575b662386f26fc100008110156105b8575b6305f5e1008110156105a7575b612710811015610598575b606481101561058a575b1015610580575b6001830191600a60216104ef6104d986611c83565b956104e76040519788611c61565b808752611c83565b602086019690601f19013688378501015b60001901917f30313233343536373839616263646566000000000000000000000000000000008282061a83530490811561053c57600a90610500565b5050602061056193610325936105706103399760405197889651809287890190611b4b565b85019151809385840190611b4b565b010103601f198101835282611c61565b91600101916104c4565b6064600291049401936104bd565b612710600491049401936104b3565b6305f5e100600891049401936104a8565b662386f26fc100006010910494019361049b565b6d04ee2d6d415b85acef81000000006020910494019361048b565b604094507a184f03e93ff9f4daa797ed6e38ed64bf6a1f01000000000000000090049050600a610470565b915050610339915060405190610629602083611c61565b8152610325565b506012600090815290917fbb8a6a4669ba250d26cd7a459eca9d215f8307e33aebe50379bc5a3617ec34445b81831061067457505090602061043b9282010161042f565b602091935080600191548385880101520191019091839261065c565b60ff191687525061043b92151560051b8201602001905061042f565b346101d95760803660031901126101d9576106c5611b93565b6106cd611ba9565b906044356064359267ffffffffffffffff84116101d957366023850112156101d9578360040135926106fe84611c83565b9361070c6040519586611c61565b80855236602482880101116101d957602081600092602461029e9901838901378601015261073b838383611c9f565b336124bd565b346101d95760003660031901126101d9576040516000600b5461076381611c27565b808452906001811690811561039c575060011461078a576103398361032581850382611c61565b600b60009081527f0175b7a638427703f0dbe7bb9bbf987a2551717b34e79f33b5b1008d1fa01db9939250905b8082106107cf57509091508101602001610325610315565b9192600181602092548385880101520191019092916107b7565b346101d9576101803660031901126101d95760043567ffffffffffffffff81116101d95761081b903690600401611bf9565b9060243567ffffffffffffffff81116101d95761083c903690600401611bf9565b919092606435926001600160a01b0384168085036101d9576084356001600160a01b0381168091036101d95760a435916001600160a01b0383168093036101d95760c435936001600160a01b0385168095036101d95761012435958615158097036101d9576101443567ffffffffffffffff81116101d9576108c2903690600401611bf9565b989099610164356001600160a01b03811681036101d95760ff60135460081c16610ec2578515610e93578615610e4e578815610e1c5761090461090a92611fee565b506120a0565b5067ffffffffffffffff8211610b93578190610927600a54611c27565b601f8111610d6f575b50600090601f8311600114610cea57600092610cdf575b50508160011b916000199060031b1c191617600a555b67ffffffffffffffff8111610b9357610977600b54611c27565b601f8111610c3c575b506000601f8211600114610bb457819061010098999a600092610ba9575b50508160011b916000199060031b1c191617600b555b604435600c556001600160a01b0319600d541617600d556001600160a01b031960085416176008556001600160a01b031960095416176009556001600160a01b0319600e541617600e5560e435600f556101043560105560ff60135491169061ffff1916171760135567ffffffffffffffff8111610b9357610a37601254611c27565b601f8111610af5575b506000601f8211600114610a7c578192600092610a71575b5050600019600383901b1c191660019190911b17601255005b013590508280610a58565b601f198216927fbb8a6a4669ba250d26cd7a459eca9d215f8307e33aebe50379bc5a3617ec344491805b858110610add57508360019510610ac3575b505050811b01601255005b0135600019600384901b60f8161c19169055828080610ab8565b90926020600181928686013581550194019101610aa6565b601f820160051c7fbb8a6a4669ba250d26cd7a459eca9d215f8307e33aebe50379bc5a3617ec3444019060208310610b6b575b601f0160051c7fbb8a6a4669ba250d26cd7a459eca9d215f8307e33aebe50379bc5a3617ec344401905b818110610b5f5750610a40565b60008155600101610b52565b7fbb8a6a4669ba250d26cd7a459eca9d215f8307e33aebe50379bc5a3617ec34449150610b28565b634e487b7160e01b600052604160045260246000fd5b013590508a8061099e565b600b81527f0175b7a638427703f0dbe7bb9bbf987a2551717b34e79f33b5b1008d1fa01db990601f198316815b818110610c2457509a8392916001946101009b9c9d10610c0a575b505050811b01600b556109b4565b0135600019600384901b60f8161c191690558a8080610bfc565b91926020600181928f87013581550194019201610be1565b600b600052601f820160051c7f0175b7a638427703f0dbe7bb9bbf987a2551717b34e79f33b5b1008d1fa01db9019060208310610cb7575b601f0160051c7f0175b7a638427703f0dbe7bb9bbf987a2551717b34e79f33b5b1008d1fa01db901905b818110610cab5750610980565b60008155600101610c9e565b7f0175b7a638427703f0dbe7bb9bbf987a2551717b34e79f33b5b1008d1fa01db99150610c74565b013590508b80610947565b600a82527fc65a7bb8d6351c1cf70c95a316cc6a92839c986682d98bc35f958f4883f9d2a8925090601f198416815b818110610d575750908460019594939210610d3d575b505050811b01600a5561095d565b0135600019600384901b60f8161c191690558b8080610d2f565b91936020600181928787013581550195019201610d19565b909150600a600052601f830160051c7fc65a7bb8d6351c1cf70c95a316cc6a92839c986682d98bc35f958f4883f9d2a8019060208410610df4575b90601f8493920160051c7fc65a7bb8d6351c1cf70c95a316cc6a92839c986682d98bc35f958f4883f9d2a801905b818110610de55750610930565b60008155849350600101610dd8565b7fc65a7bb8d6351c1cf70c95a316cc6a92839c986682d98bc35f958f4883f9d2a89150610daa565b60405162461bcd60e51b815260206004820152600a602482015269074726561737572793d360b41b6044820152606490fd5b60405162461bcd60e51b815260206004820152600e60248201527f7061796d656e74546f6b656e3d300000000000000000000000000000000000006044820152606490fd5b60405162461bcd60e51b8152602060048201526007602482015266061646d696e3d360cc1b6044820152606490fd5b60405162461bcd60e51b815260206004820152601360248201527f616c726561647920696e697469616c697a6564000000000000000000000000006044820152606490fd5b346101d95760003660031901126101d95760026000541461117157600260005560ff60135460081c161561114157601154601054111561111157600f5480156110cc5760206001600160a01b03600854169160646001600160a01b03600e5416600060405195869485936323b872dd60e01b8552336004860152602485015260448401525af19081156110c05760009161107e575b501561103957610fad601454611f03565b80601455601154906001820180921161102357602091601155600160ff196015541617601555610fdd8133612297565b60ff196015541660155580600f546040519081527ff761777482b4b40d2bcc0d050cfba6829900a2d8b3484bd0244ec0feeb3db504843392a36001600055604051908152f35b634e487b7160e01b600052601160045260246000fd5b60405162461bcd60e51b815260206004820152600e60248201527f7061796d656e74206661696c65640000000000000000000000000000000000006044820152606490fd5b6020813d6020116110b8575b8161109760209383611c61565b810103126110b457519081151582036110b1575081610f9c565b80fd5b5080fd5b3d915061108a565b6040513d6000823e3d90fd5b60405162461bcd60e51b815260206004820152601360248201527f667265653f20757365206d696e7420726f6c65000000000000000000000000006044820152606490fd5b60405162461bcd60e51b81526020600482015260086024820152671cdbdb19081bdd5d60c21b6044820152606490fd5b60405162461bcd60e51b81526020600482015260086024820152671b9bdd081a5b9a5d60c21b6044820152606490fd5b633ee5aeb560e01b60005260046000fd5b346101d95760203660031901126101d95760043561119e611f35565b6011548181018091116110235760105411156112225760005b8181106111c057005b6111cb601454611f03565b90816014556011549160018301809311611023576001926011556111ef8133612297565b604051600081527ff761777482b4b40d2bcc0d050cfba6829900a2d8b3484bd0244ec0feeb3db50460203392a3016111b7565b60405162461bcd60e51b815260206004820152600b60248201527f63617020657863656465640000000000000000000000000000000000000000006044820152606490fd5b346101d95760403660031901126101d957611280611b93565b602435908115158092036101d9576001600160a01b03169081156112f357336000526006602052604060002082600052602052604060002060ff1981541660ff83161790556040519081527f17307eab39ab6107e8899845ad3d59bd9653f200f220920489ca2b5937696c3160203392a3005b50630b61174360e31b60005260045260246000fd5b346101d95760003660031901126101d957602060405160008152f35b346101d95760003660031901126101d9576020600f54604051908152f35b346101d95760203660031901126101d95761135b611b93565b611363611f35565b601154906010548210156113a45761137c601454611f03565b908160145560018301809311611023578161139c91602094601155612297565b604051908152f35b60405162461bcd60e51b81526020600482015260096024820152686d6178537570706c7960b81b6044820152606490fd5b346101d95760003660031901126101d95760405160006002546113f781611c27565b808452906001811690811561039c575060011461141e576103398361032581850382611c61565b600260009081527f405787fa12a823e0f2b7631cc41b3ba8828b3321ca811111fa75cd3aa3bb5ace939250905b80821061146357509091508101602001610325610315565b91926001816020925483858801015201910190929161144b565b346101d95760403660031901126101d957611496611ba9565b60043560005260076020526001600160a01b0360406000209116600052602052602060ff604060002054166040519015158152f35b346101d95760003660031901126101d9576020601454604051908152f35b346101d95760203660031901126101d9576001600160a01b0361150a611b93565b1680156115295760005260046020526020604060002054604051908152f35b6322718ad960e21b600052600060045260246000fd5b346101d95760003660031901126101d95760206001600160a01b0360095416604051908152f35b346101d95760203660031901126101d9576020611584600435611f12565b6001600160a01b0360405191168152f35b346101d95760003660031901126101d95760206001600160a01b03600e5416604051908152f35b346101d95761029e6115cd36611bbf565b90604051926115dd602085611c61565b6000845261073b838383611c9f565b346101d95760003660031901126101d9576020600c54604051908152f35b346101d95760203660031901126101d95760043561162781611f12565b6001600160a01b03339116036117a057600081815260036020526001600160a01b03604082205416828115928315611766575b818152600360205260408120805473ffffffffffffffffffffffffffffffffffffffff19169055827fddf252ad1be2c89b69c2b068fc378daa952ba7f163c4a11628f55a4df523b3ef8280a4506117525760009060206001600160a01b0360095416602460405180958193637847246b60e11b83523360048401525af19081156110c05760009161171d575b602092506040518281527fb3775f672e1adf43bf7834b692675bfee4db72f83e42da8cff694ca295a89eca843392a3604051908152f35b90506020823d60201161174a575b8161173860209383611c61565b810103126101d95760209151906116e6565b3d915061172b565b637e27328960e01b60005260045260246000fd5b61178782600052600560205260406000206001600160a01b03198154169055565b828152600460205260408120805460001901905561165a565b60405162461bcd60e51b81526020600482015260096024820152683737ba1037bbb732b960b91b6044820152606490fd5b346101d95760403660031901126101d9576117ea611ba9565b336001600160a01b038216036118065761029e90600435612208565b63334bd91960e11b60005260046000fd5b346101d95760003660031901126101d95760206001600160a01b0360085416604051908152f35b346101d95760403660031901126101d95761029e60043561185d611ba9565b9061187961029482600052600760205260016040600020015490565b61216e565b346101d95760203660031901126101d957602061139c600435600052600760205260016040600020015490565b346101d95761029e6118bc36611bbf565b91611c9f565b346101d95760003660031901126101d95760206001600160a01b03600d5416604051908152f35b346101d95760403660031901126101d957611902611b93565b60243561190e81611f12565b331515806119cc575b80611995575b6119805781906001600160a01b0380851691167f8c5be1e5ebec7d5bd14f71427d1e84f3dd0314c0f7b2291e5b200ac8c7c3b925600080a460005260056020526001600160a01b03604060002091166001600160a01b0319825416179055600080f35b63a9fbf51f60e01b6000523360045260246000fd5b506001600160a01b038116600052600660205260406000206001600160a01b03331660005260205260ff604060002054161561191d565b50336001600160a01b0382161415611917565b346101d95760203660031901126101d9576004356119fc81611f12565b50600052600560205260206001600160a01b0360406000205416604051908152f35b346101d95760003660031901126101d9576040516000600154611a4081611c27565b808452906001811690811561039c5750600114611a67576103398361032581850382611c61565b600160009081527fb10e2d527612073b26eecdfd717e6a320cf44b4afac2b0732d9fcbe2b7fa0cf6939250905b808210611aac57509091508101602001610325610315565b919260018160209254838588010152019101909291611a94565b346101d95760203660031901126101d9576004359063ffffffff60e01b82168092036101d957602091637965db0b60e01b8114908115611b08575b5015158152f35b6380ac58cd60e01b811491508115611b3a575b8115611b29575b5083611b01565b6301ffc9a760e01b14905083611b22565b635b5e139f60e01b81149150611b1b565b60005b838110611b5e5750506000910152565b8181015183820152602001611b4e565b90602091611b8781518092818552858086019101611b4b565b601f01601f1916010190565b600435906001600160a01b03821682036101d957565b602435906001600160a01b03821682036101d957565b60609060031901126101d9576004356001600160a01b03811681036101d957906024356001600160a01b03811681036101d9579060443590565b9181601f840112156101d95782359167ffffffffffffffff83116101d957602083818601950101116101d957565b90600182811c92168015611c57575b6020831014611c4157565b634e487b7160e01b600052602260045260246000fd5b91607f1691611c36565b90601f8019910116810190811067ffffffffffffffff821117610b9357604052565b67ffffffffffffffff8111610b9357601f01601f191660200190565b919060ff601554161580611ef7575b80611ee5575b611e94576001600160a01b0316918215611e7e5782906000908382526003602052836001600160a01b0360408420541695869333151580611ddc575b50937fddf252ad1be2c89b69c2b068fc378daa952ba7f163c4a11628f55a4df523b3ef6001600160a01b039582611da2575b8381526004602052604081206001815401905584815260036020526040812084881982541617905580a41692838103611d8657507f305b1ae259a28473d5023ec26f6aec62369560edb2c5947675b070fdb36a36986020600c5492604051908152a4565b82846364283d7b60e01b60005260045260245260445260646000fd5b611dc385600052600560205260406000206001600160a01b03198154169055565b8281526004602052604081208054600019019055611d22565b92509293505080611e27575b15611df857908383869338611cf0565b839085611e1157602491637e27328960e01b8252600452fd5b60449163177e802f60e01b825233600452602452fd5b503385148015611e55575b80611de857508381526005602052336001600160a01b0360408320541614611de8565b508481526006602052604081206001600160a01b033316825260205260ff604082205416611e32565b633250574960e11b600052600060045260246000fd5b60405162461bcd60e51b815260206004820152602360248201527f5472616e73666572732064697361626c656420666f7220746869732070726f6a6044820152621958dd60ea1b6064820152608490fd5b506001600160a01b0383161515611cb4565b5060ff60135416611cae565b60001981146110235760010190565b8060005260036020526001600160a01b0360406000205416908115611752575090565b3360009081527fa4bfd7afe708e2e87e7f0e2ad9b4d545417e0f795f57b5c5ab5d799c565a04f4602052604090205460ff1615611f6e57565b63e2517d3f60e01b600052336004527f9f2df0fed2c77648de5860a4cc508cd0818c85b8b8a1ab4ceeef8d981c8956a660245260446000fd5b80600052600760205260406000206001600160a01b03331660005260205260ff6040600020541615611fd65750565b63e2517d3f60e01b6000523360045260245260446000fd5b6001600160a01b03811660009081527f6d5257204ebe7d88fd91ae87941cb2dd9d8062b64ae5a2bd2d28ec40b9fbf6df602052604090205460ff1661209a576001600160a01b031660008181527f6d5257204ebe7d88fd91ae87941cb2dd9d8062b64ae5a2bd2d28ec40b9fbf6df60205260408120805460ff191660011790553391907f2f8788117e7eff1d82e926ec794901d17c78024a50270940304540a733656f0d8180a4600190565b50600090565b6001600160a01b03811660009081527fa4bfd7afe708e2e87e7f0e2ad9b4d545417e0f795f57b5c5ab5d799c565a04f4602052604090205460ff1661209a576001600160a01b031660008181527fa4bfd7afe708e2e87e7f0e2ad9b4d545417e0f795f57b5c5ab5d799c565a04f460205260408120805460ff191660011790553391907f9f2df0fed2c77648de5860a4cc508cd0818c85b8b8a1ab4ceeef8d981c8956a6907f2f8788117e7eff1d82e926ec794901d17c78024a50270940304540a733656f0d9080a4600190565b80600052600760205260406000206001600160a01b03831660005260205260ff60406000205416156000146122015780600052600760205260406000206001600160a01b0383166000526020526040600020600160ff198254161790556001600160a01b03339216907f2f8788117e7eff1d82e926ec794901d17c78024a50270940304540a733656f0d600080a4600190565b5050600090565b80600052600760205260406000206001600160a01b03831660005260205260ff604060002054166000146122015780600052600760205260406000206001600160a01b038316600052602052604060002060ff1981541690556001600160a01b03339216907ff6391f5c32d9c69d2a47ea670b442974b53935d1edc7fd64eb21e047a839171b600080a4600190565b90602090604051906122a98383611c61565b600082526001600160a01b038416938415611e7e576000828152600385526001600160a01b036040822054168387827fddf252ad1be2c89b69c2b068fc378daa952ba7f163c4a11628f55a4df523b3ef8115159586612484575b83815260048b5260408082208054600101905585825260038c528120805473ffffffffffffffffffffffffffffffffffffffff19168517905580a45061246e573b61234f575b50505050565b9161238d91819495936040519384928392630a85bd0160e11b8452336004850152600060248501526044840152608060648401526084830190611b6e565b03816000885af18091600091612430575b50906123f75750503d156123ef573d906123b782611c83565b916123c56040519384611c61565b82523d60008284013e5b815191826123ec5783633250574960e11b60005260045260246000fd5b01fd5b6060906123cf565b909291506001600160e01b03191663757a42ff60e11b0161241c575038808080612349565b633250574960e11b60005260045260246000fd5b8481813d8311612467575b6124458183611c61565b810103126110b45751906001600160e01b0319821682036110b157503861239e565b503d61243b565b6339e3563760e11b600052600060045260246000fd5b6124a585600052600560205260406000206001600160a01b03198154169055565b82815260048b52604081208054600019019055612303565b93909293823b6124cf575b5050505050565b6125166001600160a01b0392836020951696846040519788968796630a85bd0160e11b88521660048701521660248501526044840152608060648401526084830190611b6e565b03816000865af180916000916125a2575b509061258057503d15612579573d61253e81611c83565b9061254c6040519283611c61565b81523d6000602083013e5b805190816125745782633250574960e11b60005260045260246000fd5b602001fd5b6060612557565b6001600160e01b03191663757a42ff60e11b0161241c575038808080806124c8565b6020813d6020116125dd575b816125bb60209383611c61565b810103126110b45751906001600160e01b0319821682036110b1575038612527565b3d91506125ae56fea2646970667358221220541df883af0555abdbdbd3afe864af9e77bba0a5950f31bc300dc145fb75c74464736f6c634300081c0033",
  "linkReferences": {},
  "deployedLinkReferences": {}
}