{
  "_format": "hh-sol-artifact-1",
  "contractName": "CarbonProjectNFT",
  "sourceName": "contracts/CarbonProjectNFT.sol",
  "abi": [
    {
      "inputs": [],
      "stateMutability": "nonpayable",
      "type": "constructor"
    },
    {
      "inputs": [],
      "name": "AccessControlBadConfirmation",
      "type": "error"
    },
    {
      "inputs": [
        {
          "internalType": "address",
          "name": "account",
          "type": "address"
        },
        {
          "internalType": "bytes32",
          "name": "neededRole",
          "type": "bytes32"
        }
      ],
      "name": "AccessControlUnauthorizedAccount",
      "type": "error"
    },
    {
      "inputs": [
        {
          "internalType": "address",
          "name": "sender",
          "type": "address"
        },
        {
          "internalType": "uint256",
          "name": "tokenId",
          "type": "uint256"
        },
        {
          "internalType": "address",
          "name": "owner",
          "type": "address"
        }
      ],
      "name": "ERC721IncorrectOwner",
      "type": "error"
    },
    {
      "inputs": [
        {
          "internalType": "address",
          "name": "operator",
          "type": "address"
        },
        {
          "internalType": "uint256",
          "name": "tokenId",
          "type": "uint256"
        }
      ],
      "name": "ERC721InsufficientApproval",
      "type": "error"
    },
    {
      "inputs": [
        {
          "internalType": "address",
          "name": "approver",
          "type": "address"
        }
      ],
      "name": "ERC721InvalidApprover",
      "type": "error"
    },
    {
      "inputs": [
        {
          "internalType": "address",
          "name": "operator",
          "type": "address"
        }
      ],
      "name": "ERC721InvalidOperator",
      "type": "error"
    },
    {
      "inputs": [
        {
          "internalType": "address",
          "name": "owner",
          "type": "address"
        }
      ],
      "name": "ERC721InvalidOwner",
      "type": "error"
    },
    {
      "inputs": [
        {
          "internalType": "address",
          "name": "receiver",
          "type": "address"
        }
      ],
      "name": "ERC721InvalidReceiver",
      "type": "error"
    },
    {
      "inputs": [
        {
          "internalType": "address",
          "name": "sender",
          "type": "address"
        }
      ],
      "name": "ERC721InvalidSender",
      "type": "error"
    },
    {
      "inputs": [
        {
          "internalType": "uint256",
          "name": "tokenId",
          "type": "uint256"
        }
      ],
      "name": "ERC721NonexistentToken",
      "type": "error"
    },
    {
      "inputs": [],
      "name": "ReentrancyGuardReentrantCall",
      "type": "error"
    },
    {
      "anonymous": false,
      "inputs": [
        {
          "indexed": true,
          "internalType": "address",
          "name": "owner",
          "type": "address"
        },
        {
          "indexed": true,
          "internalType": "address",
          "name": "approved",
          "type": "address"
        },
        {
          "indexed": true,
          "internalType": "uint256",
          "name": "tokenId",
          "type": "uint256"
        }
      ],
      "name": "Approval",
      "type": "event"
    },
    {
      "anonymous": false,
      "inputs": [
        {
          "indexed": true,
          "internalType": "address",
          "name": "owner",
          "type": "address"
        },
        {
          "indexed": true,
          "internalType": "address",
          "name": "operator",
          "type": "address"
        },
        {
          "indexed": false,
          "internalType": "bool",
          "name": "approved",
          "type": "bool"
        }
      ],
      "name": "ApprovalForAll",
      "type": "event"
    },
    {
      "anonymous": false,
      "inputs": [
        {
          "indexed": true,
          "internalType": "address",
          "name": "buyer",
          "type": "address"
        },
        {
          "indexed": true,
          "internalType": "uint256",
          "name": "tokenId",
          "type": "uint256"
        },
        {
          "indexed": false,
          "internalType": "uint256",
          "name": "retireCertId",
          "type": "uint256"
        }
      ],
      "name": "Purchased",
      "type": "event"
    },
    {
      "anonymous": false,
      "inputs": [
        {
          "indexed": true,
          "internalType": "address",
          "name": "account",
          "type": "address"
        },
        {
          "indexed": true,
          "internalType": "uint256",
          "name": "tokenId",
          "type": "uint256"
        },
        {
          "indexed": false,
          "internalType": "uint256",
          "name": "retireCertId",
          "type": "uint256"
        }
      ],
      "name": "Retired",
      "type": "event"
    },
    {
      "anonymous": false,
      "inputs": [
        {
          "indexed": true,
          "internalType": "bytes32",
          "name": "role",
          "type": "bytes32"
        },
        {
          "indexed": true,
          "internalType": "bytes32",
          "name": "previousAdminRole",
          "type": "bytes32"
        },
        {
          "indexed": true,
          "internalType": "bytes32",
          "name": "newAdminRole",
          "type": "bytes32"
        }
      ],
      "name": "RoleAdminChanged",
      "type": "event"
    },
    {
      "anonymous": false,
      "inputs": [
        {
          "indexed": true,
          "internalType": "bytes32",
          "name": "role",
          "type": "bytes32"
        },
        {
          "indexed": true,
          "internalType": "address",
          "name": "account",
          "type": "address"
        },
        {
          "indexed": true,
          "internalType": "address",
          "name": "sender",
          "type": "address"
        }
      ],
      "name": "RoleGranted",
      "type": "event"
    },
    {
      "anonymous": false,
      "inputs": [
        {
          "indexed": true,
          "internalType": "bytes32",
          "name": "role",
          "type": "bytes32"
        },
        {
          "indexed": true,
          "internalType": "address",
          "name": "account",
          "type": "address"
        },
        {
          "indexed": true,
          "internalType": "address",
          "name": "sender",
          "type": "address"
        }
      ],
      "name": "RoleRevoked",
      "type": "event"
    },
    {
      "anonymous": false,
      "inputs": [
        {
          "indexed": true,
          "internalType": "address",
          "name": "from",
          "type": "address"
        },
        {
          "indexed": true,
          "internalType": "address",
          "name": "to",
          "type": "address"
        },
        {
          "indexed": true,
          "internalType": "uint256",
          "name": "tokenId",
          "type": "uint256"
        }
      ],
      "name": "Transfer",
      "type": "event"
    },
    {
      "anonymous": false,
      "inputs": [
        {
          "indexed": true,
          "internalType": "uint256",
          "name": "projectId",
          "type": "uint256"
        },
        {
          "indexed": true,
          "internalType": "uint256",
          "name": "tokenId",
          "type": "uint256"
        },
        {
          "indexed": true,
          "internalType": "address",
          "name": "from",
          "type": "address"
        },
        {
          "indexed": false,
          "internalType": "address",
          "name": "to",
          "type": "address"
        }
      ],
      "name": "TransferTrace",
      "type": "event"
    },
    {
      "inputs": [],
      "name": "DEFAULT_ADMIN_ROLE",
      "outputs": [
        {
          "internalType": "bytes32",
          "name": "",
          "type": "bytes32"
        }
      ],
      "stateMutability": "view",
      "type": "function"
    },
    {
      "inputs": [],
      "name": "MINTER_ROLE",
      "outputs": [
        {
          "internalType": "bytes32",
          "name": "",
          "type": "bytes32"
        }
      ],
      "stateMutability": "view",
      "type": "function"
    },
    {
      "inputs": [],
      "name": "_name",
      "outputs": [
        {
          "internalType": "string",
          "name": "",
          "type": "string"
        }
      ],
      "stateMutability": "view",
      "type": "function"
    },
    {
      "inputs": [],
      "name": "_symbol",
      "outputs": [
        {
          "internalType": "string",
          "name": "",
          "type": "string"
        }
      ],
      "stateMutability": "view",
      "type": "function"
    },
    {
      "inputs": [
        {
          "internalType": "address",
          "name": "to",
          "type": "address"
        }
      ],
      "name": "adminMint",
      "outputs": [
        {
          "internalType": "uint256",
          "name": "",
          "type": "uint256"
        }
      ],
      "stateMutability": "nonpayable",
      "type": "function"
    },
    {
      "inputs": [
        {
          "internalType": "uint256",
          "name": "amount",
          "type": "uint256"
        }
      ],
      "name": "adminMintBatch",
      "outputs": [],
      "stateMutability": "nonpayable",
      "type": "function"
    },
    {
      "inputs": [
        {
          "internalType": "address",
          "name": "to",
          "type": "address"
        },
        {
          "internalType": "uint256",
          "name": "tokenId",
          "type": "uint256"
        }
      ],
      "name": "approve",
      "outputs": [],
      "stateMutability": "nonpayable",
      "type": "function"
    },
    {
      "inputs": [
        {
          "internalType": "address",
          "name": "owner",
          "type": "address"
        }
      ],
      "name": "balanceOf",
      "outputs": [
        {
          "internalType": "uint256",
          "name": "",
          "type": "uint256"
        }
      ],
      "stateMutability": "view",
      "type": "function"
    },
    {
      "inputs": [],
      "name": "buy",
      "outputs": [
        {
          "internalType": "uint256",
          "name": "",
          "type": "uint256"
        }
      ],
      "stateMutability": "nonpayable",
      "type": "function"
    },
    {
      "inputs": [],
      "name": "enforceNoResale",
      "outputs": [
        {
          "internalType": "bool",
          "name": "",
          "type": "bool"
        }
      ],
      "stateMutability": "view",
      "type": "function"
    },
    {
      "inputs": [
        {
          "internalType": "uint256",
          "name": "tokenId",
          "type": "uint256"
        }
      ],
      "name": "getApproved",
      "outputs": [
        {
          "internalType": "address",
          "name": "",
          "type": "address"
        }
      ],
      "stateMutability": "view",
      "type": "function"
    },
    {
      "inputs": [],
      "name": "getBaseURI",
      "outputs": [
        {
          "internalType": "string",
          "name": "",
          "type": "string"
        }
      ],
      "stateMutability": "view",
      "type": "function"
    },
    {
      "inputs": [
        {
          "internalType": "bytes32",
          "name": "role",
          "type": "bytes32"
        }
      ],
      "name": "getRoleAdmin",
      "outputs": [
        {
          "internalType": "bytes32",
          "name": "",
          "type": "bytes32"
        }
      ],
      "stateMutability": "view",
      "type": "function"
    },
    {
      "inputs": [
        {
          "internalType": "bytes32",
          "name": "role",
          "type": "bytes32"
        },
        {
          "internalType": "address",
          "name": "account",
          "type": "address"
        }
      ],
      "name": "grantRole",
      "outputs": [],
      "stateMutability": "nonpayable",
      "type": "function"
    },
    {
      "inputs": [
        {
          "internalType": "bytes32",
          "name": "role",
          "type": "bytes32"
        },
        {
          "internalType": "address",
          "name": "account",
          "type": "address"
        }
      ],
      "name": "hasRole",
      "outputs": [
        {
          "internalType": "bool",
          "name": "",
          "type": "bool"
        }
      ],
      "stateMutability": "view",
      "type": "function"
    },
    {
      "inputs": [
        {
          "internalType": "string",
          "name": "name_",
          "type": "string"
        },
        {
          "internalType": "string",
          "name": "symbol_",
          "type": "string"
        },
        {
          "internalType": "uint256",
          "name": "_projectId",
          "type": "uint256"
        },
        {
          "internalType": "address",
          "name": "admin",
          "type": "address"
        },
        {
          "internalType": "address",
          "name": "_paymentToken",
          "type": "address"
        },
        {
          "internalType": "address",
          "name": "_retireContract",
          "type": "address"
        },
        {
          "internalType": "address",
          "name": "_treasury",
          "type": "address"
        },
        {
          "internalType": "uint256",
          "name": "_price",
          "type": "uint256"
        },
        {
          "internalType": "uint256",
          "name": "_maxSupply",
          "type": "uint256"
        },
        {
          "internalType": "bool",
          "name": "_enforceNoResale",
          "type": "bool"
        },
        {
          "internalType": "string",
          "name": "baseURI_",
          "type": "string"
        },
        {
          "internalType": "address",
          "name": "minter_",
          "type": "address"
        }
      ],
      "name": "initialize",
      "outputs": [],
      "stateMutability": "nonpayable",
      "type": "function"
    },
    {
      "inputs": [
        {
          "internalType": "address",
          "name": "owner",
          "type": "address"
        },
        {
          "internalType": "address",
          "name": "operator",
          "type": "address"
        }
      ],
      "name": "isApprovedForAll",
      "outputs": [
        {
          "internalType": "bool",
          "name": "",
          "type": "bool"
        }
      ],
      "stateMutability": "view",
      "type": "function"
    },
    {
      "inputs": [],
      "name": "issuer",
      "outputs": [
        {
          "internalType": "address",
          "name": "",
          "type": "address"
        }
      ],
      "stateMutability": "view",
      "type": "function"
    },
    {
      "inputs": [],
      "name": "maxSupply",
      "outputs": [
        {
          "internalType": "uint256",
          "name": "",
          "type": "uint256"
        }
      ],
      "stateMutability": "view",
      "type": "function"
    },
    {
      "inputs": [],
      "name": "mintedCount",
      "outputs": [
        {
          "internalType": "uint256",
          "name": "",
          "type": "uint256"
        }
      ],
      "stateMutability": "view",
      "type": "function"
    },
    {
      "inputs": [],
      "name": "name",
      "outputs": [
        {
          "internalType": "string",
          "name": "",
          "type": "string"
        }
      ],
      "stateMutability": "view",
      "type": "function"
    },
    {
      "inputs": [],
      "name": "nextTokenId",
      "outputs": [
        {
          "internalType": "uint256",
          "name": "",
          "type": "uint256"
        }
      ],
      "stateMutability": "view",
      "type": "function"
    },
    {
      "inputs": [
        {
          "internalType": "uint256",
          "name": "tokenId",
          "type": "uint256"
        }
      ],
      "name": "ownerOf",
      "outputs": [
        {
          "internalType": "address",
          "name": "",
          "type": "address"
        }
      ],
      "stateMutability": "view",
      "type": "function"
    },
    {
      "inputs": [],
      "name": "paymentToken",
      "outputs": [
        {
          "internalType": "contract IERC20",
          "name": "",
          "type": "address"
        }
      ],
      "stateMutability": "view",
      "type": "function"
    },
    {
      "inputs": [],
      "name": "price",
      "outputs": [
        {
          "internalType": "uint256",
          "name": "",
          "type": "uint256"
        }
      ],
      "stateMutability": "view",
      "type": "function"
    },
    {
      "inputs": [],
      "name": "projectId",
      "outputs": [
        {
          "internalType": "uint256",
          "name": "",
          "type": "uint256"
        }
      ],
      "stateMutability": "view",
      "type": "function"
    },
    {
      "inputs": [
        {
          "internalType": "bytes32",
          "name": "role",
          "type": "bytes32"
        },
        {
          "internalType": "address",
          "name": "callerConfirmation",
          "type": "address"
        }
      ],
      "name": "renounceRole",
      "outputs": [],
      "stateMutability": "nonpayable",
      "type": "function"
    },
    {
      "inputs": [
        {
          "internalType": "uint256",
          "name": "tokenId",
          "type": "uint256"
        }
      ],
      "name": "retire",
      "outputs": [
        {
          "internalType": "uint256",
          "name": "",
          "type": "uint256"
        }
      ],
      "stateMutability": "nonpayable",
      "type": "function"
    },
    {
      "inputs": [],
      "name": "retireContract",
      "outputs": [
        {
          "internalType": "contract CarbonRetireNFT",
          "name": "",
          "type": "address"
        }
      ],
      "stateMutability": "view",
      "type": "function"
    },
    {
      "inputs": [
        {
          "internalType": "bytes32",
          "name": "role",
          "type": "bytes32"
        },
        {
          "internalType": "address",
          "name": "account",
          "type": "address"
        }
      ],
      "name": "revokeRole",
      "outputs": [],
      "stateMutability": "nonpayable",
      "type": "function"
    },
    {
      "inputs": [
        {
          "internalType": "address",
          "name": "from",
          "type": "address"
        },
        {
          "internalType": "address",
          "name": "to",
          "type": "address"
        },
        {
          "internalType": "uint256",
          "name": "tokenId",
          "type": "uint256"
        }
      ],
      "name": "safeTransferFrom",
      "outputs": [],
      "stateMutability": "nonpayable",
      "type": "function"
    },
    {
      "inputs": [
        {
          "internalType": "address",
          "name": "from",
          "type": "address"
        },
        {
          "internalType": "address",
          "name": "to",
          "type": "address"
        },
        {
          "internalType": "uint256",
          "name": "tokenId",
          "type": "uint256"
        },
        {
          "internalType": "bytes",
          "name": "data",
          "type": "bytes"
        }
      ],
      "name": "safeTransferFrom",
      "outputs": [],
      "stateMutability": "nonpayable",
      "type": "function"
    },
    {
      "inputs": [
        {
          "internalType": "address",
          "name": "operator",
          "type": "address"
        },
        {
          "internalType": "bool",
          "name": "approved",
          "type": "bool"
        }
      ],
      "name": "setApprovalForAll",
      "outputs": [],
      "stateMutability": "nonpayable",
      "type": "function"
    },
    {
      "inputs": [
        {
          "internalType": "bytes4",
          "name": "interfaceId",
          "type": "bytes4"
        }
      ],
      "name": "supportsInterface",
      "outputs": [
        {
          "internalType": "bool",
          "name": "",
          "type": "bool"
        }
      ],
      "stateMutability": "view",
      "type": "function"
    },
    {
      "inputs": [],
      "name": "symbol",
      "outputs": [
        {
          "internalType": "string",
          "name": "",
          "type": "string"
        }
      ],
      "stateMutability": "view",
      "type": "function"
    },
    {
      "inputs": [
        {
          "internalType": "uint256",
          "name": "",
          "type": "uint256"
        }
      ],
      "name": "tokenURI",
      "outputs": [
        {
          "internalType": "string",
          "name": "",
          "type": "string"
        }
      ],
      "stateMutability": "view",
      "type": "function"
    },
    {
      "inputs": [
        {
          "internalType": "address",
          "name": "from",
          "type": "address"
        },
        {
          "internalType": "address",
          "name": "to",
          "type": "address"
        },
        {
          "internalType": "uint256",
          "name": "tokenId",
          "type": "uint256"
        }
      ],
      "name": "transferFrom",
      "outputs": [],
      "stateMutability": "nonpayable",
      "type": "function"
    },
    {
      "inputs": [],
      "name": "treasury",
      "outputs": [
        {
          "internalType": "address",
          "name": "",
          "type": "address"
        }
      ],
      "stateMutability": "view",
      "type": "function"
    }
  ],
  "bytecode": "0x60806040523461033157604080519081016001600160401b0381118282101761023c576040908152600d82526c10d85c989bdb941c9bda9958dd609a1b602083015280519081016001600160401b0381118282101761023c57604052600581526410d413919560da1b6020820152600160005581516001600160401b03811161023c57600154600181811c91168015610327575b602082101461021c57601f81116102c2575b50602092601f821160011461025d5792819293600092610252575b50508160011b916000199060031b1c1916176001555b80516001600160401b03811161023c57600254600181811c91168015610232575b602082101461021c57601f81116101b7575b50602091601f821160011461015357918192600092610148575b50508160011b916000199060031b1c1916176002555b6040516124a190816103378239f35b015190503880610123565b601f198216926002600052806000209160005b85811061019f57508360019510610186575b505050811b01600255610139565b015160001960f88460031b161c19169055388080610178565b91926020600181928685015181550194019201610166565b60026000527f405787fa12a823e0f2b7631cc41b3ba8828b3321ca811111fa75cd3aa3bb5ace601f830160051c81019160208410610212575b601f0160051c01905b8181106102065750610109565b600081556001016101f9565b90915081906101f0565b634e487b7160e01b600052602260045260246000fd5b90607f16906100f7565b634e487b7160e01b600052604160045260246000fd5b0151905038806100c0565b601f198216936001600052806000209160005b8681106102aa5750836001959610610291575b505050811b016001556100d6565b015160001960f88460031b161c19169055388080610283565b91926020600181928685015181550194019201610270565b60016000527fb10e2d527612073b26eecdfd717e6a320cf44b4afac2b0732d9fcbe2b7fa0cf6601f830160051c8101916020841061031d575b601f0160051c01905b81811061031157506100a5565b60008155600101610304565b90915081906102fb565b90607f1690610093565b600080fdfe608080604052600436101561001357600080fd5b60003560e01c90816301ffc9a7146119535750806306fdde03146118ab578063081812fc1461186c578063095ea7b3146117765780631d1438481461174f57806323b872dd14611738578063248a9ca31461170b5780632f2ff15d146116cb5780633013ce29146116a457806336568abe1461165e5780633790cf57146114975780633fafa1271461147957806342842e0e1461144957806361d027b3146114225780636352211e146113f35780636b7285d3146113cc57806370a0823114611376578063714c5398146112ce57806375794a3c146112b057806391d148541461126257806395d89b41146111ba5780639769dc0e14611127578063a035b1fe14611109578063a217fddf146110ed578063a22cb4651461104c578063a2e1054d14610f67578063a6f2ae3a14610cec578063acc1ef6f146105ce578063b09f126614610526578063b88d4fde14610491578063c87b56dd146103e9578063cf721b15146103cb578063d28d8852146102e6578063d5391393146102ab578063d547741f14610264578063d5abeb0114610246578063e985e9c5146101e95763f3680960146101c157600080fd5b346101e45760003660031901126101e457602060ff601354166040519015158152f35b600080fd5b346101e45760403660031901126101e457610202611a19565b6001600160a01b03610212611a2f565b911660005260066020526001600160a01b0360406000209116600052602052602060ff604060002054166040519015158152f35b346101e45760003660031901126101e4576020601054604051908152f35b346101e45760403660031901126101e4576102a9600435610283611a2f565b906102a461029f82600052600760205260016040600020015490565b611e2d565b61208e565b005b346101e45760003660031901126101e45760206040517f9f2df0fed2c77648de5860a4cc508cd0818c85b8b8a1ab4ceeef8d981c8956a68152f35b346101e45760003660031901126101e4576040516000600a5461030881611aad565b80845290600181169081156103a75750600114610348575b6103448361033081850382611ae7565b6040519182916020835260208301906119d8565b0390f35b600a60009081527fc65a7bb8d6351c1cf70c95a316cc6a92839c986682d98bc35f958f4883f9d2a8939250905b80821061038d57509091508101602001610330610320565b919260018160209254838588010152019101909291610375565b60ff191660208086019190915291151560051b840190910191506103309050610320565b346101e45760003660031901126101e4576020601154604051908152f35b346101e45760203660031901126101e457604051600060125461040b81611aad565b80845290600181169081156103a75750600114610432576103448361033081850382611ae7565b601260009081527fbb8a6a4669ba250d26cd7a459eca9d215f8307e33aebe50379bc5a3617ec3444939250905b80821061047757509091508101602001610330610320565b91926001816020925483858801015201910190929161045f565b346101e45760803660031901126101e4576104aa611a19565b6104b2611a2f565b906044356064359267ffffffffffffffff84116101e457366023850112156101e4578360040135926104e384611b09565b936104f16040519586611ae7565b80855236602482880101116101e45760208160009260246102a999018389013786010152610520838383611b25565b33612343565b346101e45760003660031901126101e4576040516000600b5461054881611aad565b80845290600181169081156103a7575060011461056f576103448361033081850382611ae7565b600b60009081527f0175b7a638427703f0dbe7bb9bbf987a2551717b34e79f33b5b1008d1fa01db9939250905b8082106105b457509091508101602001610330610320565b91926001816020925483858801015201910190929161059c565b346101e4576101803660031901126101e45760043567ffffffffffffffff81116101e457610600903690600401611a7f565b9060243567ffffffffffffffff81116101e457610621903690600401611a7f565b919092606435926001600160a01b0384168085036101e4576084356001600160a01b0381168091036101e45760a435916001600160a01b0383168093036101e45760c435936001600160a01b0385168095036101e45761012435958615158097036101e4576101443567ffffffffffffffff81116101e4576106a7903690600401611a7f565b989099610164356001600160a01b03811681036101e45760ff60135460081c16610ca7578515610c78578615610c33578815610c01576106e96106ef92611e74565b50611f26565b5067ffffffffffffffff821161097857819061070c600a54611aad565b601f8111610b54575b50600090601f8311600114610acf57600092610ac4575b50508160011b916000199060031b1c191617600a555b67ffffffffffffffff81116109785761075c600b54611aad565b601f8111610a21575b506000601f821160011461099957819061010098999a60009261098e575b50508160011b916000199060031b1c191617600b555b604435600c556001600160a01b0319600d541617600d556001600160a01b031960085416176008556001600160a01b031960095416176009556001600160a01b0319600e541617600e5560e435600f556101043560105560ff60135491169061ffff1916171760135567ffffffffffffffff81116109785761081c601254611aad565b601f81116108da575b506000601f8211600114610861578192600092610856575b5050600019600383901b1c191660019190911b17601255005b01359050828061083d565b601f198216927fbb8a6a4669ba250d26cd7a459eca9d215f8307e33aebe50379bc5a3617ec344491805b8581106108c2575083600195106108a8575b505050811b01601255005b0135600019600384901b60f8161c1916905582808061089d565b9092602060018192868601358155019401910161088b565b601f820160051c7fbb8a6a4669ba250d26cd7a459eca9d215f8307e33aebe50379bc5a3617ec3444019060208310610950575b601f0160051c7fbb8a6a4669ba250d26cd7a459eca9d215f8307e33aebe50379bc5a3617ec344401905b8181106109445750610825565b60008155600101610937565b7fbb8a6a4669ba250d26cd7a459eca9d215f8307e33aebe50379bc5a3617ec3444915061090d565b634e487b7160e01b600052604160045260246000fd5b013590508a80610783565b600b81527f0175b7a638427703f0dbe7bb9bbf987a2551717b34e79f33b5b1008d1fa01db990601f198316815b818110610a0957509a8392916001946101009b9c9d106109ef575b505050811b01600b55610799565b0135600019600384901b60f8161c191690558a80806109e1565b91926020600181928f870135815501940192016109c6565b600b600052601f820160051c7f0175b7a638427703f0dbe7bb9bbf987a2551717b34e79f33b5b1008d1fa01db9019060208310610a9c575b601f0160051c7f0175b7a638427703f0dbe7bb9bbf987a2551717b34e79f33b5b1008d1fa01db901905b818110610a905750610765565b60008155600101610a83565b7f0175b7a638427703f0dbe7bb9bbf987a2551717b34e79f33b5b1008d1fa01db99150610a59565b013590508b8061072c565b600a82527fc65a7bb8d6351c1cf70c95a316cc6a92839c986682d98bc35f958f4883f9d2a8925090601f198416815b818110610b3c5750908460019594939210610b22575b505050811b01600a55610742565b0135600019600384901b60f8161c191690558b8080610b14565b91936020600181928787013581550195019201610afe565b909150600a600052601f830160051c7fc65a7bb8d6351c1cf70c95a316cc6a92839c986682d98bc35f958f4883f9d2a8019060208410610bd9575b90601f8493920160051c7fc65a7bb8d6351c1cf70c95a316cc6a92839c986682d98bc35f958f4883f9d2a801905b818110610bca5750610715565b60008155849350600101610bbd565b7fc65a7bb8d6351c1cf70c95a316cc6a92839c986682d98bc35f958f4883f9d2a89150610b8f565b60405162461bcd60e51b815260206004820152600a602482015269074726561737572793d360b41b6044820152606490fd5b60405162461bcd60e51b815260206004820152600e60248201527f7061796d656e74546f6b656e3d300000000000000000000000000000000000006044820152606490fd5b60405162461bcd60e51b8152602060048201526007602482015266061646d696e3d360cc1b6044820152606490fd5b60405162461bcd60e51b815260206004820152601360248201527f616c726561647920696e697469616c697a6564000000000000000000000000006044820152606490fd5b346101e45760003660031901126101e457600260005414610f5657600260005560ff60135460081c1615610f26576011546010541115610ef657600f548015610eb15760206001600160a01b03600854169160646001600160a01b03600e5416600060405195869485936323b872dd60e01b8552336004860152602485015260448401525af1908115610ea557600091610e63575b5015610e1e57610d92601454611d89565b806014556011549060018201809211610e0857602091601155600160ff196015541617601555610dc2813361211d565b60ff196015541660155580600f546040519081527ff761777482b4b40d2bcc0d050cfba6829900a2d8b3484bd0244ec0feeb3db504843392a36001600055604051908152f35b634e487b7160e01b600052601160045260246000fd5b60405162461bcd60e51b815260206004820152600e60248201527f7061796d656e74206661696c65640000000000000000000000000000000000006044820152606490fd5b6020813d602011610e9d575b81610e7c60209383611ae7565b81010312610e995751908115158203610e96575081610d81565b80fd5b5080fd5b3d9150610e6f565b6040513d6000823e3d90fd5b60405162461bcd60e51b815260206004820152601360248201527f667265653f20757365206d696e7420726f6c65000000000000000000000000006044820152606490fd5b60405162461bcd60e51b81526020600482015260086024820152671cdbdb19081bdd5d60c21b6044820152606490fd5b60405162461bcd60e51b81526020600482015260086024820152671b9bdd081a5b9a5d60c21b6044820152606490fd5b633ee5aeb560e01b60005260046000fd5b346101e45760203660031901126101e457600435610f83611dbb565b601154818101809111610e085760105411156110075760005b818110610fa557005b610fb0601454611d89565b90816014556011549160018301809311610e0857600192601155610fd4813361211d565b604051600081527ff761777482b4b40d2bcc0d050cfba6829900a2d8b3484bd0244ec0feeb3db50460203392a301610f9c565b60405162461bcd60e51b815260206004820152600b60248201527f63617020657863656465640000000000000000000000000000000000000000006044820152606490fd5b346101e45760403660031901126101e457611065611a19565b602435908115158092036101e4576001600160a01b03169081156110d857336000526006602052604060002082600052602052604060002060ff1981541660ff83161790556040519081527f17307eab39ab6107e8899845ad3d59bd9653f200f220920489ca2b5937696c3160203392a3005b50630b61174360e31b60005260045260246000fd5b346101e45760003660031901126101e457602060405160008152f35b346101e45760003660031901126101e4576020600f54604051908152f35b346101e45760203660031901126101e457611140611a19565b611148611dbb565b6011549060105482101561118957611161601454611d89565b908160145560018301809311610e0857816111819160209460115561211d565b604051908152f35b60405162461bcd60e51b81526020600482015260096024820152686d6178537570706c7960b81b6044820152606490fd5b346101e45760003660031901126101e45760405160006002546111dc81611aad565b80845290600181169081156103a75750600114611203576103448361033081850382611ae7565b600260009081527f405787fa12a823e0f2b7631cc41b3ba8828b3321ca811111fa75cd3aa3bb5ace939250905b80821061124857509091508101602001610330610320565b919260018160209254838588010152019101909291611230565b346101e45760403660031901126101e45761127b611a2f565b60043560005260076020526001600160a01b0360406000209116600052602052602060ff604060002054166040519015158152f35b346101e45760003660031901126101e4576020601454604051908152f35b346101e45760003660031901126101e45760405160006012546112f081611aad565b80845290600181169081156103a75750600114611317576103448361033081850382611ae7565b601260009081527fbb8a6a4669ba250d26cd7a459eca9d215f8307e33aebe50379bc5a3617ec3444939250905b80821061135c57509091508101602001610330610320565b919260018160209254838588010152019101909291611344565b346101e45760203660031901126101e4576001600160a01b03611397611a19565b1680156113b65760005260046020526020604060002054604051908152f35b6322718ad960e21b600052600060045260246000fd5b346101e45760003660031901126101e45760206001600160a01b0360095416604051908152f35b346101e45760203660031901126101e4576020611411600435611d98565b6001600160a01b0360405191168152f35b346101e45760003660031901126101e45760206001600160a01b03600e5416604051908152f35b346101e4576102a961145a36611a45565b906040519261146a602085611ae7565b60008452610520838383611b25565b346101e45760003660031901126101e4576020600c54604051908152f35b346101e45760203660031901126101e4576004356114b481611d98565b6001600160a01b033391160361162d57600081815260036020526001600160a01b036040822054168281159283156115f3575b818152600360205260408120805473ffffffffffffffffffffffffffffffffffffffff19169055827fddf252ad1be2c89b69c2b068fc378daa952ba7f163c4a11628f55a4df523b3ef8280a4506115df5760009060206001600160a01b0360095416602460405180958193637847246b60e11b83523360048401525af1908115610ea5576000916115aa575b602092506040518281527fb3775f672e1adf43bf7834b692675bfee4db72f83e42da8cff694ca295a89eca843392a3604051908152f35b90506020823d6020116115d7575b816115c560209383611ae7565b810103126101e4576020915190611573565b3d91506115b8565b637e27328960e01b60005260045260246000fd5b61161482600052600560205260406000206001600160a01b03198154169055565b82815260046020526040812080546000190190556114e7565b60405162461bcd60e51b81526020600482015260096024820152683737ba1037bbb732b960b91b6044820152606490fd5b346101e45760403660031901126101e457611677611a2f565b336001600160a01b03821603611693576102a99060043561208e565b63334bd91960e11b60005260046000fd5b346101e45760003660031901126101e45760206001600160a01b0360085416604051908152f35b346101e45760403660031901126101e4576102a96004356116ea611a2f565b9061170661029f82600052600760205260016040600020015490565b611ff4565b346101e45760203660031901126101e4576020611181600435600052600760205260016040600020015490565b346101e4576102a961174936611a45565b91611b25565b346101e45760003660031901126101e45760206001600160a01b03600d5416604051908152f35b346101e45760403660031901126101e45761178f611a19565b60243561179b81611d98565b33151580611859575b80611822575b61180d5781906001600160a01b0380851691167f8c5be1e5ebec7d5bd14f71427d1e84f3dd0314c0f7b2291e5b200ac8c7c3b925600080a460005260056020526001600160a01b03604060002091166001600160a01b0319825416179055600080f35b63a9fbf51f60e01b6000523360045260246000fd5b506001600160a01b038116600052600660205260406000206001600160a01b03331660005260205260ff60406000205416156117aa565b50336001600160a01b03821614156117a4565b346101e45760203660031901126101e45760043561188981611d98565b50600052600560205260206001600160a01b0360406000205416604051908152f35b346101e45760003660031901126101e45760405160006001546118cd81611aad565b80845290600181169081156103a757506001146118f4576103448361033081850382611ae7565b600160009081527fb10e2d527612073b26eecdfd717e6a320cf44b4afac2b0732d9fcbe2b7fa0cf6939250905b80821061193957509091508101602001610330610320565b919260018160209254838588010152019101909291611921565b346101e45760203660031901126101e4576004359063ffffffff60e01b82168092036101e457602091637965db0b60e01b8114908115611995575b5015158152f35b6380ac58cd60e01b8114915081156119c7575b81156119b6575b508361198e565b6301ffc9a760e01b149050836119af565b635b5e139f60e01b811491506119a8565b919082519283825260005b848110611a04575050826000602080949584010152601f8019910116010190565b806020809284010151828286010152016119e3565b600435906001600160a01b03821682036101e457565b602435906001600160a01b03821682036101e457565b60609060031901126101e4576004356001600160a01b03811681036101e457906024356001600160a01b03811681036101e4579060443590565b9181601f840112156101e45782359167ffffffffffffffff83116101e457602083818601950101116101e457565b90600182811c92168015611add575b6020831014611ac757565b634e487b7160e01b600052602260045260246000fd5b91607f1691611abc565b90601f8019910116810190811067ffffffffffffffff82111761097857604052565b67ffffffffffffffff811161097857601f01601f191660200190565b919060ff601554161580611d7d575b80611d6b575b611d1a576001600160a01b0316918215611d045782906000908382526003602052836001600160a01b0360408420541695869333151580611c62575b50937fddf252ad1be2c89b69c2b068fc378daa952ba7f163c4a11628f55a4df523b3ef6001600160a01b039582611c28575b8381526004602052604081206001815401905584815260036020526040812084881982541617905580a41692838103611c0c57507f305b1ae259a28473d5023ec26f6aec62369560edb2c5947675b070fdb36a36986020600c5492604051908152a4565b82846364283d7b60e01b60005260045260245260445260646000fd5b611c4985600052600560205260406000206001600160a01b03198154169055565b8281526004602052604081208054600019019055611ba8565b92509293505080611cad575b15611c7e57908383869338611b76565b839085611c9757602491637e27328960e01b8252600452fd5b60449163177e802f60e01b825233600452602452fd5b503385148015611cdb575b80611c6e57508381526005602052336001600160a01b0360408320541614611c6e565b508481526006602052604081206001600160a01b033316825260205260ff604082205416611cb8565b633250574960e11b600052600060045260246000fd5b60405162461bcd60e51b815260206004820152602360248201527f5472616e73666572732064697361626c656420666f7220746869732070726f6a6044820152621958dd60ea1b6064820152608490fd5b506001600160a01b0383161515611b3a565b5060ff60135416611b34565b6000198114610e085760010190565b8060005260036020526001600160a01b03604060002054169081156115df575090565b3360009081527fa4bfd7afe708e2e87e7f0e2ad9b4d545417e0f795f57b5c5ab5d799c565a04f4602052604090205460ff1615611df457565b63e2517d3f60e01b600052336004527f9f2df0fed2c77648de5860a4cc508cd0818c85b8b8a1ab4ceeef8d981c8956a660245260446000fd5b80600052600760205260406000206001600160a01b03331660005260205260ff6040600020541615611e5c5750565b63e2517d3f60e01b6000523360045260245260446000fd5b6001600160a01b03811660009081527f6d5257204ebe7d88fd91ae87941cb2dd9d8062b64ae5a2bd2d28ec40b9fbf6df602052604090205460ff16611f20576001600160a01b031660008181527f6d5257204ebe7d88fd91ae87941cb2dd9d8062b64ae5a2bd2d28ec40b9fbf6df60205260408120805460ff191660011790553391907f2f8788117e7eff1d82e926ec794901d17c78024a50270940304540a733656f0d8180a4600190565b50600090565b6001600160a01b03811660009081527fa4bfd7afe708e2e87e7f0e2ad9b4d545417e0f795f57b5c5ab5d799c565a04f4602052604090205460ff16611f20576001600160a01b031660008181527fa4bfd7afe708e2e87e7f0e2ad9b4d545417e0f795f57b5c5ab5d799c565a04f460205260408120805460ff191660011790553391907f9f2df0fed2c77648de5860a4cc508cd0818c85b8b8a1ab4ceeef8d981c8956a6907f2f8788117e7eff1d82e926ec794901d17c78024a50270940304540a733656f0d9080a4600190565b80600052600760205260406000206001600160a01b03831660005260205260ff60406000205416156000146120875780600052600760205260406000206001600160a01b0383166000526020526040600020600160ff198254161790556001600160a01b03339216907f2f8788117e7eff1d82e926ec794901d17c78024a50270940304540a733656f0d600080a4600190565b5050600090565b80600052600760205260406000206001600160a01b03831660005260205260ff604060002054166000146120875780600052600760205260406000206001600160a01b038316600052602052604060002060ff1981541690556001600160a01b03339216907ff6391f5c32d9c69d2a47ea670b442974b53935d1edc7fd64eb21e047a839171b600080a4600190565b906020906040519061212f8383611ae7565b600082526001600160a01b038416938415611d04576000828152600385526001600160a01b036040822054168387827fddf252ad1be2c89b69c2b068fc378daa952ba7f163c4a11628f55a4df523b3ef811515958661230a575b83815260048b5260408082208054600101905585825260038c528120805473ffffffffffffffffffffffffffffffffffffffff19168517905580a4506122f4573b6121d5575b50505050565b9161221391819495936040519384928392630a85bd0160e11b84523360048501526000602485015260448401526080606484015260848301906119d8565b03816000885af180916000916122b6575b509061227d5750503d15612275573d9061223d82611b09565b9161224b6040519384611ae7565b82523d60008284013e5b815191826122725783633250574960e11b60005260045260246000fd5b01fd5b606090612255565b909291506001600160e01b03191663757a42ff60e11b016122a25750388080806121cf565b633250574960e11b60005260045260246000fd5b8481813d83116122ed575b6122cb8183611ae7565b81010312610e995751906001600160e01b031982168203610e96575038612224565b503d6122c1565b6339e3563760e11b600052600060045260246000fd5b61232b85600052600560205260406000206001600160a01b03198154169055565b82815260048b52604081208054600019019055612189565b93909293823b612355575b5050505050565b61239c6001600160a01b0392836020951696846040519788968796630a85bd0160e11b885216600487015216602485015260448401526080606484015260848301906119d8565b03816000865af18091600091612428575b509061240657503d156123ff573d6123c481611b09565b906123d26040519283611ae7565b81523d6000602083013e5b805190816123fa5782633250574960e11b60005260045260246000fd5b602001fd5b60606123dd565b6001600160e01b03191663757a42ff60e11b016122a25750388080808061234e565b6020813d602011612463575b8161244160209383611ae7565b81010312610e995751906001600160e01b031982168203610e965750386123ad565b3d915061243456fea26469706673582212200a33d1b9795ba1a8e4d764fc5163b5611b3177367c9097221aa8f8cb8ece32d064736f6c634300081c0033",
  "linkReferences": {},
  "deployedLinkReferences": {}
}